:020000040800F2
:1000000028140020E9300008F1010008F30100087D
:10001000F7010008FB010008FF01000800000000D4
:1000200000000000000000000000000003020008C3
:10003000050200080000000007020008090200088D
:1000400003310008033100080331000803310008C0
:1000500003310008033100080331000803310008B0
:100060000331000803310008033100086D10000857
:100070000331000803310008033100080331000890
:10008000033100080331000895110008033100080E
:100090000331000803310008033100080331000870
:1000A0000331000803310008033100080331000860
:1000B000090F00080331000803310008033100086C
:1000C0000331000803310008033100080331000840
:1000D00003310008212800084F080008F72B00080A
:1000E0000331000803310008033100080331000820
:1000F0000331000803310008033100080331000810
:1001000003310008033100080331000803310008FF
:10011000F1090008A50B00080331000803310008AD
:1001200003310008033100080331000803310008DF
:1001300000F002F800F03AF80AA090E8000C8244BF
:100140008344AAF10107DA4501D100F02FF8AFF29C
:10015000090EBAE80F0013F0010F18BFFB1A43F0A5
:1001600001031847E450000004510000103A24BF76
:1001700078C878C1FAD8520724BF30C830C144BF0C
:1001800004680C607047000000230024002500264E
:10019000103A28BF78C1FBD8520728BF30C148BFEA
:1001A0000B6070471FB51FBD10B510BD05F011F8ED
:1001B0001146FFF7F7FF00F009F805F02FF803B438
:1001C000FFF7F2FF03BC05F037F8000001F00FFA6B
:1001D0000648006840F003000449086005E001F0AB
:1001E0003BFF02F093FE01F0D0F8F8E7500000204A
:1001F000704700BFFEE700BFFEE700BFFEE700BF9D
:10020000FEE7704770477047704700000CB500204C
:10021000019000906C48006840F480306A490860A2
:1002200000BF6948006800F4003000900198401C4D
:100230000190009818B90198B0F5A06FF1D162480B
:10024000006800F4003010B10120009001E00020AF
:1002500000900098012843D15C48006840F01000ED
:100260005A4908600846006820F003000860084604
:10027000006840F0020008605348406852494860F6
:100280000846406848600846406840F4806048601E
:100290000846406820F47C1048600846406840F4F6
:1002A000E81048600846006840F08070086000BFB1
:1002B0004548006800F000700028F9D042484068C6
:1002C00020F00300404948600846406840F00200C2
:1002D000486000BF3C48406800F00C000828F9D195
:1002E0000CBD10B5FFF792FF10BD10B53648006881
:1002F00040F001003449086008464068344908402D
:100300003149486008460068324908402E49086073
:100310000846006820F4802008600846406820F401
:10032000FE0048604FF41F008860FFF7DAFF4FF0CF
:1003300000602949086010BD10B50021002000228E
:10034000214B5B6803F00C0121B1042906D0082978
:1003500028D107E0214B224C236027E01F4B204C83
:10036000236023E0184B5B6803F47010164B5B6846
:1003700003F48032022303EB904022B9194B43432C
:10038000174C23600DE0104B5B6803F4003323B17E
:10039000144B4343124C236003E0104B4343104C77
:1003A000236003E00D4B0E4C236000BF00BF064BE3
:1003B0005B68C3F303130C4CE15C094B1B68CB4037
:1003C000074C236010BD00000010024000200240D6
:1003D0000000FFF8FFFFF6FE08ED00E000127A00D3
:1003E0000000002000093D000400002008B50121A4
:1003F000202003F0B5F94FF40040ADF800001020C4
:100400008DF8030003208DF802006946CB4802F006
:10041000EBFE4FF40041C94802F093FF08BD08B558
:100420000121042003F09CF94FF40060ADF80000B6
:1004300010208DF8030003208DF802006946C048A3
:1004400002F0D2FE4FF40061BD4802F07AFF08BD11
:1004500008B50121082003F083F94FF44040ADF8BE
:10046000000010208DF8030003208DF8020069467B
:10047000B44802F0B9FE4FF48041B24802F061FF87
:100480004FF40041AF4802F05CFF08BD08B5012100
:10049000212003F065F94FF48070ADF800001020C2
:1004A0008DF8030003208DF802006946A34802F08E
:1004B0009BFE4FF48071A14802F043FF08BD08B5D0
:1004C0000121212003F04CF95020ADF8000010204C
:1004D0008DF8030003208DF802006946974802F06A
:1004E00083FE4021954802F02CFF1021934802F032
:1004F00028FF08BD94480068401C934908600846DE
:1005000000689249884203D20120914908600BE0BB
:100510008D4800688F49884203D200208C490860CA
:1005200002E00020884908607047894908607047E8
:1005300010B504462CB14FF48071804802F001FFE1
:1005400004E04FF480717D4802F0FDFE10BD10B54F
:1005500004462CB14FF40061794802F0F4FE04E047
:100560004FF40061764802F0ECFE10BD10B5044671
:1005700004F0020028B14FF48041724802F0E1FE1D
:1005800004E04FF480416F4802F0DDFE04F001000A
:1005900028B14FF400416B4802F0D3FE04E04FF461
:1005A0000041684802F0CFFE10BD08B5012140208F
:1005B00003F0D6F83C20ADF8000002208DF80200D0
:1005C00010208DF803006946634802F00DFE08BD57
:1005D000082872D2DFE800F094432223047A5354AF
:1005E0005E49097869B101215D4A11605D4AC2F82E
:1005F0008C1100215A4A121D11605A4AC2F8881102
:100600000BE00021564A1160564AC2F88C11544A38
:10061000121D1160534AC2F888118DE000BF524983
:10062000097879B101214E4A121D116000214D4A0D
:10063000C2F890114A4A121F11600121494AC2F8BA
:1006400088110BE00021464A121D1160454AC2F88C
:100650008811434A1160434AC2F88C116CE00121B1
:100660003F4A121D116000213E4AC2F890113C4AD7
:10067000121F116001213B4AC2F888115CE000BFE3
:100680003649097839B10121354A11600021354ACE
:10069000C2F88C1105E00021314A1160314AC2F8DC
:1006A0008C113149097849B101212D4A121D11607F
:1006B00000212C4AC2F8881107E02FE00021284AC7
:1006C000121D1160274AC2F8881135E023490978C4
:1006D00039B10121224A11600021224AC2F88C114D
:1006E00005E000211E4A11601E4AC2F88C1101214A
:1006F0001B4A121D116000211A4AC2F888111BE022
:100700000021174A121D1160164AC2F89011144AAE
:10071000121F1160134AC2F888110DE00021104A1F
:10072000121D11600F4AC2F890110D4A121F11607C
:100730000C4AC2F8881100BF00BF70470014014086
:1007400000080140000C01401400002020A1070017
:10075000BC81224240420F000018014028000020C6
:1007600090012342000023422A00002010B586B0E9
:1007700004460121480403F000F80121052002F09D
:10078000EFFFF84803F0BEF80420ADF81400032092
:100790008DF8160018208DF8170005A9F24802F010
:1007A00023FD0820ADF8140004208DF8170005A9DA
:1007B000ED4802F019FD26208DF8000003208DF889
:1007C00001008DF8020001208DF80300684603F057
:1007D00030F801940020ADF80800ADF80A00ADF83B
:1007E0000C00ADF810000C20ADF80E0001A9DD489A
:1007F00003F0CBF8012240F22551DA4803F05DF90D
:100800000121D84803F04DF906B010BD10B50446DB
:100810002146D44803F0B2F900BF4021D14803F08B
:100820001BFA0028F9D010BD10B5044603E014F8F7
:10083000010BFFF7EBFF20780028F8D110BD10B5B1
:10084000012240F22771C74803F037F910BD10B5F7
:10085000002440F22551C34803F014FA012837D18F
:1008600040F22551BF4803F004FAC048008801282F
:1008700012D1BC4803F086F9C4B2BD4800782428E0
:1008800004D1402C02D10020B8490880B848047037
:100890000020B849087042E0B24803F073F9C1B2D1
:1008A000B44802780078401CB24B1870B2488154AA
:1008B00018460078032832DBAF4801F0A8FD00207D
:1008C000AC490870AA4908700120A849088026E0B0
:1008D00040F22771A34803F0D5F900B3A748007888
:1008E00005280CDAA648A54A1278815C9D4803F0D9
:1008F00045F9A2480078401CA04908700FE000208C
:100900009E490870002240F22771964803F0D5F8FE
:10091000944800F0BFFE10B100209A49087010BD45
:1009200010B586B004460121102002F019FF012104
:10093000C80402F022FF4FF48060ADF814001820C4
:100940008DF8170003208DF8160005A98E4802F0D7
:100950004BFC4FF40060ADF8140004208DF8170034
:1009600005A9894802F040FC01940020ADF8080078
:10097000ADF80A00ADF80C00ADF810000C20ADF891
:100980000E0001A9814803F000F834208DF8000022
:1009900003208DF801008DF8020001208DF803007E
:1009A000684602F046FF012240F22551774803F0E5
:1009B00084F80121754803F074F806B010BD10B535
:1009C00004462146714803F0D9F800BF40216F4822
:1009D00003F042F90028F9D010BD10B5044603E039
:1009E00014F8010BFFF7EBFF20780028F8D110BDB9
:1009F00010B5002440F22551644803F043F9012862
:100A000032D163480088012815D1604803F0BAF854
:100A1000C4B2FF2C01D0BF2C26D100205C49088035
:100A20005C490870084601780078401C594A1070EB
:100A30005948445418E0554803F0A4F8C1B2554849
:100A400002780078401C534B187053488154184664
:100A50000078052808DB504801F008FE00204D49C9
:100A6000087001204A49088010BD10B5012240F2EB
:100A70002771464803F021F810BD10B586B0044632
:100A80000121302002F06CFE0121080502F075FE04
:100A90004FF48050ADF8140018208DF81700032093
:100AA0008DF8160005A9384802F09EFB0420ADF829
:100AB00014008DF8170005A9384802F095FB019441
:100AC0000020ADF80800ADF80A00ADF80C00ADF854
:100AD00010000C20ADF80E0001A9314802F055FFBE
:100AE00035208DF8000003208DF801008DF80200FC
:100AF00001208DF80300684602F09BFE012240F2BF
:100B00002551274802F0D9FF0121254802F0C9FFED
:100B100006B010BD10B504462146214803F02EF85A
:100B200000BF40211E4803F097F80028F9D010BDFF
:100B300070B505460C46002600BF05E014F8010B11
:100B4000FFF7E8FF701CC6B2AE42F7DB70BD10B510
:100B5000044603E014F8010BFFF7DCFF20780028BF
:100B6000F8D110BD00440040000801401A000020E8
:100B7000180000201C000020340100201D0000206F
:100B8000260100203D00002000100140004C0040E4
:100B90001E00002020000020080100200014014059
:100BA0000050004010B5002440F22551414803F0A8
:100BB00069F8012833D14048008801280FD13D4809
:100BC00002F0E0FFC4B23D480078FD2804D1DF2CDC
:100BD00002D10020384908803848047048E0354880
:100BE00002F0D0FFC1B2364802780078401C344B86
:100BF0001870344881540078801E1946097888425C
:100C000036DC30490878491C01F0BDFC00202C4935
:100C100008702A49087001202749088028E040F21E
:100C20002771244803F02EF810B32748807827490D
:100C3000097888420CDD2448244A1278815C1D48DA
:100C400002F09CFF21480078401C204908700FE00A
:100C500000201E490870002240F22771154802F05A
:100C60002CFF144800F016FD10B100201849087040
:100C700010BD70B505460C46FD202070DF20607069
:100C8000A570012240F227710A4802F016FF70BDDC
:100C900010B502460B461046002104E05C5C04449B
:100CA000E0B24C1CE1B2141F8C42F7DCC443641C5C
:100CB000E0B210BD005000402200002021000020C2
:100CC00024000020EA000020DC0000202500002095
:100CD0003C00002008B50121082002F041FD4FF43E
:100CE0000070ADF8000010208DF8030003208DF88F
:100CF00002006946664802F077FA4FF48070ADF85A
:100D0000000002208DF8020004208DF803006946DF
:100D10005F4802F069FA0121402002F021FD012024
:100D2000ADF8000010208DF8030003208DF80200BC
:100D30006946584802F058FA08BD70B504460020CC
:100D400055490860052002F044F901205349C1F8D3
:100D50008001142002F03DF900205149086005206F
:100D600002F037F900251DE001204D49086004F02C
:100D7000010050B14FF4167002F007F90020484905
:100D80000860C82002F001F909E0C82002F0FDF86F
:100D90000020434908604FF4167002F0F6F8641022
:100DA000681CC5B2082DDFDB01203D49086070BD1D
:100DB00010B50220FFF7C1FF1E2002F00AF9F22051
:100DC000FFF7BBFF10BD10B50120FFF7B6FF1E20D7
:100DD00002F0FFF8F220FFF7B0FF10BD10B50020C1
:100DE000FFF7ABFF1E2002F0F4F8F220FFF7A5FF9B
:100DF00010BD10B5FE20FFF7A0FF1E2002F0E9F89D
:100E000010BD10B504465A2002F0E3F82046FFF763
:100E100094FF1E2002F0DDF810BD70B504460D46AB
:100E20001646FF2C2DD02EB1FFF7E3FF00201D4901
:100E3000087016E01B480078A04212D0042C02D1A2
:100E4000FFF7B6FF0BE0032C02D1FFF7BCFF06E073
:100E5000022C02D1FFF7C2FF01E0FFF7CAFF1148E1
:100E6000047045F0E00510480078A8420ED005F067
:100E7000E000E0280AD12846FFF7C3FF0A480570C2
:100E800004E0FFF7A0FFFF200649087070BD0000D6
:100E9000000C014000180140800123420000234261
:100EA000A481214226000020270000207FB50546AE
:100EB0000C460121084602F060FCADF80850ADF880
:100EC00004400020ADF80A00ADF8060001A94FF07B
:100ED000804002F0EFFF01221146900703F061FB12
:100EE0001C208DF8000002208DF8010003208DF8F1
:100EF000020001208DF80300684602F09AFC0121EF
:100F0000880703F033FB7FBD10B50121880703F08C
:100F1000F6FD002848D025480078192190FBF1F211
:100F200001FB120068B92248007808B9012000E0EE
:100F300000201F4908701F48006840F010001D493C
:100F400008601B480078FFF7F0FA1849087800EBB2
:100F5000D0714910A0EB410141B901201649087038
:100F60001448006840F02000124908600F480078DB
:100F7000642190FBF1F201FB120050B90F48007898
:100F800008B9012000E000200C4908700020074942
:100F9000087006480078401C0449087002F06EF89A
:100FA0000121880703F0BCFD10BD00002B000020CC
:100FB0002800002050000020290000202A000020E6
:100FC00010B50446042301222146C04803F06BFEFD
:100FD0000121BE4803F03BFE00BF0221BB4803F0E5
:100FE000A7FF0028F9D0B94803F0C4FE10BD00B532
:100FF00087B001214FF4017002F0B2FB0120ADF87F
:10100000180000208DF81B0006A9B14802F0ECF88A
:10101000002001908DF8080001208DF809004FF4A0
:10102000602003900020049001208DF8140001A995
:10103000A64803F0A0FD042301220021A34803F0E9
:1010400032FE0121A14803F0C2FD00BF9F4803F01A
:10105000E5FD0028FAD19D4803F0EAFD00BF9B485A
:1010600003F0EBFD0028FAD107B000BD10B5022057
:1010700004F089F860B1022004F099F8934803F075
:1010800079FE9449086094480068401C92490860C1
:1010900010BD00B593B001214FF4017002F060FB68
:1010A0000121084602F04FFB0120ADF84800002066
:1010B0008DF84B0012A9864802F096F8874803F095
:1010C0005BFF82484C3007908248089000200990CE
:1010D00001200A9000200B900C904FF480700D902E
:1010E00080000E9020200F900002109000201190A0
:1010F00007A97A4803F0E2FF01220221774804F0B1
:1011000014F80121754804F004F80B208DF818003C
:1011100000208DF8190003208DF81A0001208DF8A9
:101120001B0006A802F085FB002001908DF8080046
:1011300001208DF809004FF46020039000200490F6
:1011400001208DF8140001A9604803F014FD042368
:10115000012200215D4803F0A6FD01215B4803F058
:1011600041FD0121594803F032FD00BF574803F00B
:1011700055FD0028FAD1554803F05AFD00BF5348E9
:1011800003F05BFD0028FAD10121504803F05FFD18
:1011900013B000BD10B54D4803F0ECFD50494E4A68
:1011A000126821F812004C480068401C4A49086047
:1011B00008460068142801D30020086010BD00B55F
:1011C00087B001214FF4017002F0CAFA12208DF8A5
:1011D000180000208DF8190003208DF81A00012056
:1011E0008DF81B0006A802F024FB0120ADF81400C6
:1011F00000208DF8170005A9354801F0F5FF002003
:1012000000908DF8040001208DF805004FF4602057
:1012100002900020039001208DF8100069462B48B1
:1012200003F0A9FC042301220021284803F03BFD20
:101230000121264803F0CBFC00BF244803F0EEFC5C
:101240000028FAD1214803F0F3FC00BF1F4803F047
:10125000F4FC0028FAD101224FF408711B4803F076
:10126000CCFC0121194803F0F2FC07B000BD70B5B9
:1012700002460C461588168801210DE032F811004F
:10128000B04201DD32F8116032F81100A84201DAF3
:1012900032F81150481C81B2A142EFDB002100233B
:1012A00004E032F811000344481C81B2A142F8DB8B
:1012B0009B1B5B1BA01EB3FBF0F398B270BD00B587
:1012C00014210748FFF7D3FF00BD000000240140B0
:1012D000000801402C0000203000002008000240DF
:1012E000460D002008B50121402002F039FA4FF4E4
:1012F0002060ADF8000002208DF8020004208DF877
:10130000030069464C4801F06FFF08BD00204B49BF
:10131000096801B9012049490831096809B980F013
:101320000200704710B585B0FFF7F0FF0346444850
:10133000007828B90120424908708DF8003015E086
:101340003F480078401E1DF80000984207D03C48F6
:1013500001780078401C3A4C20700DF80130384874
:101360000078142802D1002035490870002206E0D8
:101370003448805C984200D103E0501CC2B2042A79
:10138000F6DB00BF104605B010BD30B5FFF7BEFF5D
:1013900005462D4804782B48005DA8424AD0032C0E
:1013A00001D1002401E0601CC4B22648005DA842BF
:1013B00018D126480078401C244908700020244990
:1013C000087022480078042832DB00201F4908708A
:1013D0005520204908802048006840F004001E493C
:1013E000086025E0184804780CB9032401E0601E69
:1013F000C4B21448005DA84217D1002013490870F8
:1014000013480078401C12490870084600780428E8
:101410000EDB00200870DD200E4908800E480068B1
:1014200040F004000C49086002E0FFF77BFF04462F
:101430000548047030BD000000180140240123421B
:101440003900002034000020380000203A0000203D
:101450003B000020760000205000002001460A22B8
:1014600091FBF2F291B2B1F5827F01DB042026E01C
:10147000E22907DBFD4A1278032A01DC03201EE083
:1014800004201CE0E12901DB032018E0D12907DB5F
:10149000F64A1278022A01DC022010E003200EE056
:1014A000D02901DB02200AE0BF2907DBEF4A1278CE
:1014B000012A01DC012002E0022000E00120EB4AC9
:1014C000107070470020EA490988642904D101207E
:1014D0000021E84A11701BE0E7490988642904D11A
:1014E00000200021E34A117012E0E4490978022942
:1014F0000CD0E0490978491CDE4A11701146097880
:10150000042905DB02200021117001E0DB49087885
:10151000DA490870704770B501F0A2FD08B11124D6
:1015200000E02224112C40D1D548007811282BD17D
:10153000D4494870FFF7C6FFD349087008460078C1
:1015400030B90620CF4908700020D049087017E054
:10155000CD480078012806D10520CA49087000202E
:10156000CA4908700CE0C94801780078401CC74A95
:1015700010700A2904DD0020C24908701146087065
:101580000020C349087031E0C14801780078401C50
:10159000BF4A1070082904DBB948047000201146C6
:1015A00008700020B949087020E0B548007822286A
:1015B0000CD1B4494870FFF782FE0546FFF74EFF95
:1015C000B04908700020B24908700CE0B0480178BA
:1015D0000078401CAE4A1070082904DBA84804704B
:1015E0000020114608700020A849087070BD10B591
:1015F00000240120A7490860A749C1F88C010020F8
:10160000A449091D0860A449C1F888010120FEF71A
:101610008FFF0320FEF7AAFF00220721FF20FFF71C
:10162000FCFB05E04FF47A7001F0D3FC601CC4B2FF
:10163000032CF7DB01209749091D0860002096491B
:10164000C1F890019349091F086001209249C1F82F
:101650008801002405E04FF47A7001F0BAFC601CA8
:10166000C4B2032CF7DB00208A4908608A49C1F81C
:101670008C018849091D08608749C1F88801874B9A
:101680009A7819785878FFF7C8FB85480088FEF7E4
:101690006DFF10BD2DE9F04106460024002781486A
:1016A00086427DD18048006810B90120BDE8F081F4
:1016B000002507E00120A8407B490968084000B1E7
:1016C00002E06D1C202DF5DB00BF0120A840B0F525
:1016D000807F66D010DC10287ED006DC022823D064
:1016E000042869D0082878D198E0202876D04028AE
:1016F00075D08028F7D189E1B0F5805F70D009DC22
:10170000B0F5007F6DD0B0F5806F6BD0B0F5006F95
:10171000E9D196E2B0F5005F7ED0B0F5804F7CD085
:10172000B0F5004FDFD1F9E2032400222146641C0A
:101730005E4842545E48008802122146641C5B48A1
:1017400042545B4802782146641C58484254594828
:10175000008802122146641C5448425455480278BD
:101760002146641C514842545348008802122146C5
:10177000641C4E484254504802782046611CCCB24A
:101780004A490A54611CC8B24849C91CFFF780FA8B
:1017900046490855601CC4B22046FFF76AFA01E0CA
:1017A00044E36FE10120454908703F48006820F09C
:1017B00002003D49086038E3032401222146641CED
:1017C0003A4842543E48008802122146641C374879
:1017D00042543B48027806E074E024E3BEE0F0E0C7
:1017E00056E29FE1F2E12146641C30484254601CFD
:1017F0002E49C91CFFF74CFA2C490855641C204699
:10180000FFF737FA01202D4908702748006820F0BB
:1018100004002549086008E3A8E2DCE20324022270
:101820002146641C21484254164802782146641C13
:101830001E484254134842782146641C1B484254B7
:10184000601C1A49C91CFFF723FA18490855641C83
:101850002046FFF70EFA0120184908701248006868
:1018600020F0080010490860DFE200007C00002042
:10187000B80000207E000020BA0000207D0000207B
:1018800081000020700000207800002080000020EF
:101890007F000020900123420000234254000020DA
:1018A0007A0000200050004040000020DC000020B2
:1018B0006A0000206C0000206E0000203C00002028
:1018C00076000020032403222146641CFE48425473
:1018D000FE48008802122146641CFB484254FB4823
:1018E00002782146641CF8484254F84840880212A5
:1018F0002146641CF4484254F44882782146641C12
:10190000F1484254F148808802122146641CEE4896
:101910004254EE4802792046611CCCB2EA490A548E
:10192000EA48027A2046611CCCB2E7490A54611C9D
:10193000C8B2E549C91CFFF7ABF9E3490855601C7B
:10194000C4B22046FFF795F90120E1490870E1484B
:10195000006820F01000DF49086066E203240422DA
:101960002146641CD8484254DB4802782146641C56
:10197000D5484254D84842782146641CD248425443
:10198000D54882782146641CCF484254D248C27858
:101990002146641CCC484254601CCB49C91CFFF74B
:1019A00077F9C9490855641C2046FFF762F9012000
:1019B000C7490870C748006820F02000C549086082
:1019C00033E2032405222146641CBF48425400220E
:1019D0002146641C42542146641C42542146641C26
:1019E0004254601CB849C91CFFF752F9B649085562
:1019F000641C2046FFF73DF90120B5490870B54841
:101A0000006820F04000B34908600EE2032406227B
:101A10002146641CAC484254B04842782146641CBC
:101A2000A9484254AD4882782146641CA6484254D5
:101A3000AA4802782146641CA3484254A748008B58
:101A400002122146641CA0484254A448027E21464A
:101A5000641C9D484254611CC8B29B49C91CFFF7D5
:101A600017F999490855601CC4B22046FFF701F9DF
:101A70000120974908709748006820F08000954938
:101A80000860D2E1032407222146641C8E48425498
:101A90009248C2782146641C8B4842548F48027990
:101AA0002146641C884842548C4842792146641C73
:101AB00085484254894882792146641C82484254B0
:101AC0008648C2792146641C7F4842548348027A82
:101AD0002046611CCCB27C490A548048427A204698
:101AE000611CCCB278490A547C48827A2046611C39
:101AF000CCB275490A54611CC8B27349C91CFFF7BE
:101B0000C7F871490855601CC4B22046FFF7B1F808
:101B100001206F4908706F48006820F480706D499B
:101B2000086082E1032408222146641C664842546E
:101B30006A48008A02122146641C6348425467487E
:101B4000027C2146641C604842546448408A021268
:101B50002146641C5C4842546048827C2146641CD7
:101B6000594842545D48808A02122146641C5648F6
:101B700042545A48027D2046611CCCB252490A5454
:101B80005648C08A02122046611CCCB24E490A5403
:101B90005248827D2046611CCCB24B490A54611CDC
:101BA000C8B24949C91CFFF773F847490855601C7A
:101BB000C4B22046FFF75DF801204549087045484A
:101BC000006820F40070434908602EE103240922D4
:101BD0002146641C3C4842544048C27A2146641C59
:101BE000394842543D48027B2146641C36484254E1
:101BF0003A48427B2146641C334842543748827B32
:101C00002146641C304842543448C27B2146641C3F
:101C10002D484254611CC8B22B49C91CFFF738F843
:101C200029490855601CC4B22046FFF722F801205C
:101C3000274908702748006820F48060254908601B
:101C4000F3E003240A222146641C1F48425424481E
:101C500002782146641C1C4842542148427821469F
:101C6000641C19484254601C1749C91CFFF710F83E
:101C700015490855641C2046FEF7FBFF0120144956
:101C800008701448006820F4006012490860CCE035
:101C900003240B222146641C0B484254114800883F
:101CA00002122146641C084842540E48027821461C
:101CB000641C054842540B48408802122146641CAB
:101CC0000148425407480FE0DC0000206E0D002060
:101CD0003C00002040000020980000208E0D0020D5
:101CE00066000020A600002082782146641CF74888
:101CF0004254601CF549C91CFEF7CAFFF349085558
:101D0000641C2046FEF7B5FF0120F1490870F14838
:101D1000006820F48050EF49086086E003240E221A
:101D20002146641CE9484254EB484089021221468E
:101D3000641CE6484254E848827A2146641CE34821
:101D40004254601CE149C91CFEF7A2FFDF49085557
:101D5000641C2046FEF78DFF0120DD490870DD4838
:101D6000006820F40040DB4908605EE003240C2298
:101D70002146641CD5484254D848008802122146A6
:101D8000641CD2484254D54802782146641CCF488E
:101D90004254D348008802122146641CCB48425466
:101DA000CF4802782146641CC8484254601CC74989
:101DB000C91CFEF76DFFC5490855641C2046FEF797
:101DC00058FF0120C2490870C248006820F4005042
:101DD000C049086029E003240D222146641CBB4849
:101DE0004254BD48808902122146641CB7484254BF
:101DF000B948027B2146641CB4484254601CB34974
:101E0000C91CFEF745FFB1490855641C2046FEF782
:101E100030FF0120AE490870AE48006820F0100085
:101E2000AC49086001E0012700BFC9E0AD48864227
:101E300024D1AD48006808B9012037E4002507E047
:101E40000120A840A8490968084000B102E06D1CC3
:101E5000022DF5DB00BF0120A84001280BD100F0C6
:101E6000CFFD0120A14908709F48006820F00100C3
:101E70009D49086001E0012700BFA1E09C4886421F
:101E8000D3D19C48006808B901200FE4002507E081
:101E90000120A84097490968084000B102E06D1C84
:101EA000202DF5DB00BF0120A840042839D004DC38
:101EB000012807D002287DD11AE008284BD010282D
:101EC0007BD162E024208C49087040204870F020CB
:101ED00088700020C8700871FEF7B1FC01208749A6
:101EE00008708448006820F001008249086066E0BC
:101EF00024208149087040204870F1208870804873
:101F00000078C8707E4880780871FEF798FC012040
:101F10007A4908707748006820F002007549086027
:101F20004DE024207449087040204870F2208870E9
:101F300073480079C8707248808800120871FEF7F3
:101F40007EFC01206D4908706A48006820F004009A
:101F50006849086033E024206749087040204870D1
:101F6000F420887066488079C8706548C08800127F
:101F70000871FEF764FC0120604908705D48006844
:101F800020F008005B49086019E024205A490870D5
:101F900040204870F32088700020C8700871FEF758
:101FA0004EFC0120554908705248006820F010008E
:101FB000504900E001E0086001E0012700BF00BFD8
:101FC00038463AE74F488078A0B14F4800884F49DB
:101FD000098888420ED17F204A494870FF20087046
:101FE000002088701020C8703A48006840F0200037
:101FF000384908604548008843490880704744488C
:102000000078002827D0434800884349098888423F
:102010001DD100203E498882C882488208824872C9
:102020008872FF20C8704871087188714870887084
:10203000C87108720020087008734873C8728873EA
:10204000C8732448006840F4B060224908603248F0
:10205000008830490880704710B530480068002873
:102060007ED0002407E00120A0402C4909680840E8
:1020700000B102E0641C202CF5D300BF0120A04079
:10208000B0F5807F6DD012DC10286BD008DC012801
:1020900069D0022868D0042867D0082866D1F7E004
:1020A000202847D0402878D08028F7D116E1B0F515
:1020B000005F73D034DCB0F5007F70D0B0F5806F76
:1020C0006ED0B0F5805FE9D17EE10000DC00002039
:1020D0003C000020400000206E0D00207200002017
:1020E0007400002000380140440000208C000020D3
:1020F000004400404C000020260100203D0000204C
:102100005A00002098000020820000209600002045
:102110008E0D0020840000208E0000205000002042
:10212000B0F5804F74D0B0F5004F72D0B0F5803F5D
:10213000B4D123E1F948006820F02000F749086095
:10214000F748007858B1F748006840F40070F54946
:102150000860F548007810B9F448FFF79BFA06E0EC
:1021600054E1DBE027E060E06CE07EE04DE1F04828
:102170000079F8B1EB48006840F48050E949086004
:10218000EB48408810B90020E9490871E848007917
:1021900038B10120FEF7DBF906E08CE001E1D0E088
:1021A000D6E00020FEF7D3F9DF48007810B9DF4809
:1021B000FFF770FA29E1D948006820F01000D749EC
:1021C0000860DC49C878FEF703FAFFF7A4F9FFF7C7
:1021D00016FFFFF7F7FED348006840F01800D1491A
:1021E0000860CF48007820B10846006840F4B0602D
:1021F0000860D148807828B1CA48006840F02000C3
:10220000C8490860CD494978222903D1012102E05B
:10221000A9E076E000210846FEF78AF9C248007876
:1022200010B9C248FFF736FAEFE0C24B9A78197836
:102230005878FEF7F2FDB948006820F00100B74970
:102240000860E2E0B748006840F00200B549086065
:10225000B248006820F00200B0490860B248007837
:1022600010B9B248FFF716FACFE0AE48006840F068
:102270000400AC490860A948006820F00400A749A0
:102280000860A948007810B9A848FFF703FABCE035
:10229000A448006840F40060A24908609F480068B4
:1022A00020F008009D4908609F48007810B99F48B9
:1022B000FFF7F0F9A9E0A248006840F00100A0494A
:1022C00008609648006820F04000944908609D48E6
:1022D000007810B99C48FFF7DDF996E09B4800684C
:1022E00040F00E00994908608C48006820F080009A
:1022F0008A4908609648007810B99648FFF7CAF9ED
:1023000083E08848006840F4804086490860864839
:10231000007810B98548FFF7BDF976E08B48006872
:1023200040F00100894908607C48006820F4807012
:102330007A4908608648007810B98648FFF7AAF9FC
:1023400063E07648006820F40070744908605CE03F
:102350008148007800F0EDFC7048006820F480604F
:102360006E49086051E07D480088FEF7FFF86B4831
:10237000006820F480406949086046E067480068CA
:1023800020F48030654908606648006840F40050D9
:10239000644908606448007810B96448FFF77AF926
:1023A00033E05E48006820F400505C4908605D48F6
:1023B000006840F400405B4908605B48007810B951
:1023C0005A48FFF767F920E000206549088001209E
:1023D000644908805D48006840F010005B4908606F
:1023E0004E48006820F480504C49086058480078F6
:1023F00010B95848FFF74EF9FFF7F9F84748006859
:1024000040F400504549086000BF00BF10BD01788E
:10241000E03908295AD2DFE801F0040B19321225FD
:102420003F4C8178427841EA02214F4A11804DE0C9
:102430008178427841EA02214B4A518046E0817816
:10244000427841EA0221484A11813FE00A21474A85
:102450001170417851703149096841F008012F4AE3
:10246000116033E08178427841EA0221404A1180CC
:102470002A49096841F00201284A116026E0817862
:10248000427841EA0221384A91812449096841F49D
:102490000041224A116019E08178427841EA022124
:1024A0002F4A11801D49096841F400511B4A1160EF
:1024B0000CE08178427841EA02212B4A5181174988
:1024C000096841F48031154A116000BF00BF7047B0
:1024D00030B50346002204E08C5C1C44E3B2541C7B
:1024E000E2B2C41E9442F7DCB3B90C78012C04D0DC
:1024F000022C0AD0042C44D13CE0084C246840F261
:1025000002252C43054D2C603BE0044C246844F02C
:102510000404024D2C6034E034E000005000002040
:102520008E0D0020400000203C00002000500040A4
:10253000A600002054000020980000207000002019
:10254000440000208C000020003801404C00002096
:102550003D00002000440040790000207A00002067
:1025600074000020720000206E0D00206600002024
:102570006C000020524C246844F40054504D2C60F0
:1025800000BF00BF30BD30B50346002204E08C5CC4
:102590001C44E3B2541CE2B2C41E9442F7DC002B8C
:1025A00063D10C78092C5FD2DFE804F05E051522B8
:1025B0003A5E505746004C78424D2C708C786C70C7
:1025C000CC78AC700C79EC703D4C246844F001047C
:1025D0003B4D2C6048E08C784D7844EA05243A4D18
:1025E0002C80374C246844F48044354D2C603BE00B
:1025F0004C78364D6C808C782C800C79CD7844EA00
:102600000524324DAC808C794D7944EA05242F4D58
:10261000EC802B4C246844F08004294D2C6023E08E
:102620004C782B4D2C708C786C70254C246844F0C1
:102630004004234D2C6017E04C78264D2C70204C24
:10264000246844F480641E4D2C600DE01C4C24680A
:1026500044F480741A4D2C6006E0194C246844F44C
:102660008054174D2C6000BF00BF30BD0278FF2A98
:102670001CD1427883781A43C3781A4303791A43EA
:1026800002F080026AB90122134B1A71C278D1019B
:1026900002790A441A804278D10182780A445A8029
:1026A00008E000220C4B5A801A8003E000220A4BFB
:1026B0005A801A807047052008490870704700004A
:1026C00050000020540000207A0000205A00002012
:1026D0006200002079000020A60000207000002089
:1026E00010B586B00446012144F2040001F038F828
:1026F000D14801F007F94FF40070ADF81400032041
:102700008DF8160018208DF8170005A9CB4800F0A9
:102710006BFD4FF48060ADF8140004208DF81700B5
:1027200005A9C64800F060FD25208DF800000320B3
:102730008DF801008DF8020001208DF80300684635
:1027400001F077F801940020ADF80800ADF80A0018
:10275000ADF80C00ADF810000C20ADF80E0001A98A
:10276000B54801F012F9012240F22551B24801F0BA
:10277000A4F90121B04801F094F906B010BD10B5DC
:1027800004462146AC4801F0F9F900BF4021AA48AF
:1027900001F062FA0128F9D1A948006808B90120BE
:1027A00000E00020A649086010BD10B5044603E013
:1027B00014F8010BFFF7E3FF20780028F8D110BDD3
:1027C0000278A04B1A7042785A70C278837842EA35
:1027D00003229C4B5A804279037942EA0322994BA7
:1027E0009A80C279837942EA0322964BDA80427A50
:1027F000037A42EA0322934B1A81C27A837A42EA2D
:102800000322904B5A81002107E000F10C02535C37
:102810008C4A0C3253544A1CD1B20629F5DB70475E
:1028200070B500250026002440F22551824801F0B1
:1028300029FA01286FD140F225517F4801F019FA99
:102840008148008801280FD17B4801F09BF9C5B26F
:102850007E480078AA2804D1552D02D100207A495B
:1028600008807A480570CAE0734801F08BF9C1B25C
:10287000774802780078401C754B18707548815471
:1028800075480088401C7449088018460078132851
:10289000E9DB002405E06F48005D3044C6B2601CEF
:1028A000C4B2122CF7DD002E79D16A48FFF788FFF9
:1028B0006448408869490882624880884882614843
:1028C000C08888825F480089C8825E4800780728EF
:1028D00064D2DFE800F004126321303B5500594810
:1028E000007B5E4988705748407B08725548807B62
:1028F00008715448C07B887150E05248007B5749AA
:1029000048705048407BC8714E48807BC8704D4825
:10291000C07B487142E04BE04A48807B4F49487297
:102920004848C07B88724748417C007C01EB00200E
:102930004A49088332E04348807B4849C87241488D
:10294000C07B08733F48007C487327E03D48007B0C
:1029500000F0040018B10220404908700BE039482B
:10296000007B00F0020018B101203C49087002E031
:1029700000203A4908703348007B3849C8730DE09D
:102980003048807B00F0030020B901203349887370
:1029900003E004E000203149887300BF00BF01203C
:1029A0002949088000202A4908702849087026E033
:1029B00040F22771204801F065F900B328480078FB
:1029C00005280CDA2748264A1278815C1A4801F05B
:1029D000D5F823480078401C214908700FE00020FA
:1029E0001F490870002240F22771134801F065F872
:1029F0001148FEF74FFE10B100201B49087070BD52
:102A000010B5AA201749087055204870174800785B
:102A1000887016484078C87014480078134949787F
:102A20000844C043401C0F490871012240F227713D
:102A3000014801F042F810BD003801400008014093
:102A4000BC8122427C0D00209200002090000020DA
:102A500094000020A80D00208E0000208E0D002084
:102A600095000020860000208C00002062000020DD
:102A700010B586B004460121082000F071FE012146
:102A8000880400F07AFE4FF48060ADF8140018203E
:102A90008DF8170003208DF8160005A9744800F082
:102AA000A3FB4FF40060ADF8140004208DF817006C
:102AB00005A96F4800F098FB01940020ADF80800CC
:102AC000ADF80A004FF4C060ADF80C000020ADF87E
:102AD00010000C20ADF80E0001A9664800F055FF6B
:102AE00027208DF8000003208DF801008DF80200EA
:102AF00001208DF80300684600F09BFE012240F2A1
:102B000025515C4800F0D9FF01215A4800F0C9FF67
:102B100006B010BD10B504462146564801F02EF807
:102B200000BF4021534801F097F80028F9D010BDAC
:102B300010B5044603E014F8010BFFF7EBFF207813
:102B40000028F8D110BD70B505460C46CB2020708A
:102B5000BC206070A570012240F22771454800F04A
:102B6000ACFF70BD08B5417801F08001B1BB817840
:102B700001F0800191BBC17801F0800171BB017946
:102B800001F0800151BB417801F07F018DF8001008
:102B9000817801F010018DF80110C17801F07F01FA
:102BA000827802F0400241EA42018DF80210017978
:102BB00001F07F018DF803109DF803102E4A11706B
:102BC0009DF8021051709DF80110D1709DF8011010
:102BD00069B17F211170FF21517008E0FFE77F216B
:102BE000254A1170FF21517010218DF8011001212B
:102BF000214A917008BD10B5002440F225511D48AE
:102C000001F040F8012831D11C48008801280FD17B
:102C1000184800F0B7FFC4B204F0800030B30020C1
:102C200016490880164908701648097844541DE072
:102C300013480078401C1249087013480088401C53
:102C4000114908800B4800F09DFF0E490C4A12788C
:102C500088540B480078042808DB012007490880C5
:102C60000020074908700748FFF77CFF10BD0000EF
:102C7000000C01400048004098000020A200002005
:102C8000A40000209C0000209600002030B589B0F0
:102C900004460D460121022000F06FFD01210920AC
:102CA00000F05EFD01212D4800F06FFB2020ADF803
:102CB000200018208DF8230003208DF8220008A999
:102CC000274800F091FA2021254800F03AFB2548DA
:102CD00001F080FCADF81840ADF814500020ADF8BC
:102CE0001A00ADF8160005A91E4801F0E3F86020AF
:102CF000ADF804000120ADF80600601C00EBD071B7
:102D0000C1F34F01ADF80A100020ADF80C0001A985
:102D1000144801F04EF90821124801F060FD01212C
:102D2000104801F023FD01210E4801F01FFC09B0FD
:102D300030BD70B50446642C00DD6424142C00DA28
:102D400014244FF434706043642190FBF1F085B299
:102D50002946044801F0A4FE70BD000000081A00D6
:102D6000000C01400004004008B50121102000F0D3
:102D7000F7FC4FF46070ADF8000002208DF80200FF
:102D800004208DF803006946664800F02DFA012101
:102D9000042000F0E5FC4FF48070ADF80000022044
:102DA0008DF8020004208DF8030069465E4800F0AB
:102DB0001BFA0121402000F0D3FC4FF40050ADF885
:102DC000000002208DF8020004208DF803006946FF
:102DD000564800F009FA08BD10B555480068A8B17A
:102DE00054480078A8B1022000F0F3F85048006879
:102DF00078B100204F4908707A204F4908804F4829
:102E0000006840F004004D49086002E00120494993
:102E1000087010BD10B54A480068A8B94948007844
:102E2000A8B1022000F0D5F84548006878B9002024
:102E3000444908707D20404908804048006840F0BF
:102E400004003E49086002E001203E49087010BDC0
:102E500010B53B4808380068B0B93B480078B0B1BD
:102E6000022000F0B6F836480838006878B900202B
:102E7000354908707B20304908803048006840F0B0
:102E800004002E49086002E001202F49087010BD9F
:102E900010B52B48001F0068B0B92C480078B0B1BD
:102EA000022000F096F82648001F006878B900203C
:102EB000264908707C20204908802048006840F09E
:102EC00004001E49086002E001202049087010BD7E
:102ED00010B51F480068A8B91E480078A8B10220A4
:102EE00000F077F81A48006878B90020194908708E
:102EF0007E20114908801148006840F004000F4905
:102F0000086002E001201349087010BD10B5FFF7FA
:102F100063FFFFF77FFFFFF79BFFFFF7B9FFFFF7A7
:102F2000D7FF10BD0010014000080140001801400B
:102F300034012342AE000020760000205000002023
:102F400024012242AF000020B0000020B100002088
:102F500020012142B200002010B56FF0040000F003
:102F6000B2FC2E4800682E49B0FBF1F02D490870E4
:102F70000846007800EB4001C1EBC0104FF6FF712E
:102F800001EAC0002849088010BD0146254A127890
:102F90004A434FF0E0235A6100229A611A461269AF
:102FA00042F001021A6100BF4FF0E022106900F008
:102FB00001021AB100F48032002AF5D04FF0E0226D
:102FC000126922F001024FF0E0231A6100229A6197
:102FD00070470146144A12884A434FF0E0235A6171
:102FE00000229A611A46126942F001021A6100BF7A
:102FF0004FF0E022106900F001021AB100F48032B3
:10300000002AF5D04FF0E022126922F001024FF0C1
:10301000E0231A6100229A6170470000000000203E
:1030200000127A00B4000020B600002008B501218B
:10303000082000F095FB4FF44050ADF8000004204C
:103040008DF8030003208DF8020069461F4800F048
:10305000CBF808BD10B54FF4A06000F0E5FB10BD43
:1030600000201B49096801B1012070470020184960
:10307000091D096801B100E00120704700B5FFF7A4
:10308000F5FF28B913480068401C1249086004E0A5
:1030900011480068401C1049086010480068401C36
:1030A0000E4908600846006864280ED30948008865
:1030B0000B490880084800880A4908800020054913
:1030C0000860054908600549086000BD000C014022
:1030D00030812142C0000020C4000020BC0000203C
:1030E000B8000020BA00002009488047094800477E
:1030F000FEE7FEE7FEE7FEE7FEE7FEE7FEE7FEE7A8
:10310000FEE7FEE704480549054A064B7047000004
:10311000EB02000831010008280E002028140020CE
:10312000281000202810002010B50446CC48844206
:1031300008D10121042000F02DFB0021042000F023
:1031400029FB46E0C748844208D10121082000F04D
:1031500021FB0021082000F01DFB3AE0C248844218
:1031600008D10121102000F015FB0021102000F0F3
:1031700011FB2EE0BD48844208D10121202000F03F
:1031800009FB0021202000F005FB22E0B848844222
:1031900008D10121402000F0FDFA0021402000F07C
:1031A000F9FA16E0B348844208D10121802000F0EA
:1031B000F1FA0021802000F0EDFA0AE0AE488442E6
:1031C00007D10121801500F0E5FA0021A01500F0DB
:1031D000E1FA10BD10B50121084600F0DBFA00212C
:1031E000012000F0D7FA10BD2DE9F041024600257C
:1031F0000026002000230024002791F803C00CF0D3
:103200000F0591F803C00CF0100CBCF1000F03D0B7
:1032100091F802C04CEA050591F800C0BCF1000F1E
:1032200031D0146800202BE04FF0010C0CFA00F3B1
:10323000B1F800C00CEA03069E4220D183004FF093
:103240000F0C0CFA03F7BC4305FA03FC4CEA040428
:1032500091F803C0BCF1280F06D14FF0010C0CFA15
:1032600000FCC2F814C00AE091F803C0BCF1480F9A
:1032700005D14FF0010C0CFA00FCC2F810C0401C44
:103280000828D1D31460B1F800C0BCF1FF0F34DDC1
:10329000546800202EE000F1080C4FF0010808FAF5
:1032A0000CF3B1F800C00CEA03069E4221D1830062
:1032B0004FF00F0C0CFA03F7BC4305FA03FC4CEA81
:1032C000040491F803C0BCF1280F05D100F1080CEB
:1032D00008FA0CF8C2F8148091F803C0BCF1480F4A
:1032E00007D100F1080C4FF0010808FA0CF8C2F8F9
:1032F0001080401C0828CED35460BDE8F0814FF602
:10330000FF710180022181700421C1707047024663
:10331000002093680B400BB1012000E000207047B3
:103320000146886880B2704702460020D3680B408F
:103330000BB1012000E0002070470146C86880B250
:10334000704701617047416170470AB1016100E057
:1033500041617047C16070474FF480320A43826117
:103360008161826182698269704702460020434B15
:1033700018684FF68073184040EA021008433F4B2C
:10338000186070473E49C8617047F0B50A4600238F
:1033900000240021002500F00046B6F1004F02D1C4
:1033A000364EF16901E0354E7168C0F3034583B2D2
:1033B00000F44016B6F5401F08D121F070612F4E81
:1033C000766826F070662D4F7E6012E000F480165D
:1033D000B6F5801F06D1032606FA05F4A14341F095
:1033E000706106E0460D360103FA06F6B14341F07E
:1033F000706122B1460D360103FA06F6314300F042
:103400000046B6F1004F02D11C4EF16101E01B4EA7
:103410007160F0BD30B500228B071C0F0F2303FA3B
:1034200004F2164B08338C1053F824309343134C9A
:1034300008348D1044F8253023468C1053F824307E
:103440008C07240F00FA04F423430C4C08348D102D
:1034500044F8253030BD0A49DC310860704700006F
:1034600000080140000C0140001001400014014020
:1034700000180140001C01400020014000000140F4
:1034800000002042DF48006840F00100DD4908608C
:1034900008464068DC490840DA4948600846006848
:1034A000DA490840D74908600846006820F48020BF
:1034B00008600846406820F4FE0048604FF41F0092
:1034C00088607047CF49096821F48031CD4A116086
:1034D0001146096821F480211160B0F5803F03D0C6
:1034E000B0F5802F0ED106E0C649096841F480315D
:1034F000C44A116007E0C349096841F4A021C14AE8
:10350000116000E000BF00BF704710B50146002207
:10351000002300204A11012A02D1BA4C236806E098
:10352000022A02D1B74C236A01E0B64C636A01F06B
:103530001F02012494401C400CB1012000E0002037
:1035400010BD38B5002000900024002500BF3120B8
:10355000FFF7DBFF05460098401C00900098B0F58F
:10356000A06F01D0002DF2D03120FFF7CEFF08B1BF
:10357000012400E00024204638BD01460020A14A75
:10358000106820F0F80040EAC10010607047A049C0
:1035900008607047024600209A4B586820F47C105F
:1035A00042EA01031843974B5860704798490866F0
:1035B000704701460020934A506820F003000843FA
:1035C000506070478F48406800F00C00704701461B
:1035D00000208C4A506820F0F0000843506070478B
:1035E00001460020874A506820F4E060084350609C
:1035F000704701460020834A506820F4605040EA3A
:10360000C1005060704729B17E4A527A02437D4B17
:103610005A7204E07B4A527A82437A4B5A7270475C
:103620007B49D8310860704701460020754A5068D0
:1036300020F440400843506070470021714A203216
:103640001170704A82F82010012802D004280AD193
:1036500004E001216B4A2032117005E00521694A1E
:103660002032117000E000BF00BF70476949086058
:1036700070476449096A0143624A116270476549AB
:1036800044390860704730B500210022002400232F
:103690005C4D6D6805F00C0121B1042905D00829A5
:1036A00023D105E05C4D056022E05B4D05601FE025
:1036B000544D6D6805F47012524D6D6805F48034F8
:1036C000022505EB92421CB9544D554305600BE0B1
:1036D0004C4D6D6805F400351DB1504D55430560E6
:1036E00002E04D4D5543056002E04B4D056000BFC3
:1036F00000BF444D6D6805F0F0010909484D6B5C51
:103700000568DD4045603F4D6D6805F4E061090ADC
:10371000434D6B5C4568DD4085603A4D6D6805F44E
:103720006051C90A3E4D6B5C4568DD40C560354D52
:103730006D6805F44041890B3A4D6B5CC568B5FB7B
:10374000F3F5056130BD29B12E4A526902432D4B74
:103750005A6104E02B4A526982432A4B5A617047EE
:1037600029B1284A92690243264B9A6104E0254A0E
:1037700092698243234B9A61704729B1214AD269E9
:103780000243204BDA6104E01E4AD26982431D4B9A
:10379000DA61704729B11B4AD2680243194BDA60DB
:1037A00004E0184AD2688243164BDA60704729B1A8
:1037B000144A12690243134B1A6104E0114A126958
:1037C0008243104B1A6170471249403908607047B4
:1037D0000F49C86470470B49C87170470948406A6F
:1037E00040F0807007494862704701460020054A52
:1037F00092680A400AB1012000E0002070470149A8
:1038000088727047001002400000FFF8FFFFF6FECC
:10381000000042428004424200127A0000093D004A
:10382000C8000020D800002031490143314A11600E
:10383000704770B5002100230F22C47804B32D4CCB
:10384000246804F4E064C4F5E064210AC1F10403CF
:10385000CA40447804FA03F18478144021430901F2
:10386000254C0678A155047804F01F050124AC40CE
:1038700005786D11AD0005F1E025C5F8004109E0BE
:10388000047804F01F050124AC401C4D0678761125
:1038900045F8264070BD1A4A0A400243154B1B1FCB
:1038A0001A60704739B1134A121D12680243114B56
:1038B0001B1D1A6006E00F4A121D126882430D4B51
:1038C0001B1D1A607047042808D14FF0E0210969D8
:1038D00041F004014FF0E022116107E04FF0E021D8
:1038E000096921F004014FF0E022116170470000E6
:1038F0000000FA050CED00E000E400E080E100E0EB
:1039000080FFFF1F10B50446FB48844209D1012106
:103910008803FFF73FFF00214FF48040FFF73AFF95
:1039200032E0F648844209D101214804FFF73FFF05
:1039300000214FF40030FFF73AFF25E0F0488442C1
:1039400009D101218804FFF732FF00214FF48020C4
:10395000FFF72DFF18E0EB48844209D10121C8048C
:10396000FFF725FF00214FF40020FFF720FF0BE0B9
:10397000E548844208D101210805FFF718FF00211E
:103980004FF48010FFF713FF10BD2DE9F04786B00C
:1039900005460E460024A24600BFA1460027B08976
:1039A00000B100BF2F462C8A4CF6FF700440F0880F
:1039B00004432C82AC894EF6F3100440B088318960
:1039C0000843718908430443AC81AC8A4FF6FF4039
:1039D0000440B0890443AC8201A8FFF754FEC648F6
:1039E000874202D1DDF810A001E0DDF80CA0A88923
:1039F00000F4004040B10AEBCA0000EB0A10316845
:103A00004900B0FBF1F807E00AEBCA0000EB0A102E
:103A100031688900B0FBF1F86420B8FBF0F00401D4
:103A20002009642101FB1089A88900F4004040B1FD
:103A3000322000EBC900B0FBF1F000F007000443B6
:103A400008E0322000EB09106421B0FBF1F000F037
:103A50000F0004432C8106B0BDE8F0874FF41651E7
:103A6000016000218180C18001810C214181002100
:103A70008181704710B502460020108A4FF2FF0383
:103A800018400B884C8823438C882343CC882343DD
:103A90001843108210BD0021018041808180C180C7
:103AA000704721B1828942F40052828104E0828908
:103AB0004DF6FF731A4082817047F0B5034600242B
:103AC00000260025002040F66A17B94200D100BF49
:103AD0001846C1F3421401F01F06012707FA06F544
:103AE000012C01D10C3004E0022C01D1103000E097
:103AF00014301AB107682F43076002E00768AF432C
:103B00000760F0BD1AB1838A0B43838202E0838A87
:103B10008B4383827047028A4FF6F0731A40028209
:103B2000028A0A430282704782894FF2FF731A4069
:103B3000828182890A438281704721B1828942F061
:103B40000202828104E082894FF6FD731A4082816D
:103B50007047028A4FF6DF731A400282028A0A43D4
:103B60000282704721B1028A42F48042028204E05C
:103B7000028A4BF6FF731A4002827047C1F30802B3
:103B80008280704701468888C0F3080070478189A9
:103B900041F0010181817047028BD2B20283028B16
:103BA00042EA012202837047028B02F47F420283C1
:103BB000028B0A430283704721B1828A42F02002BD
:103BC000828204E0828A4FF6DF731A408282704755
:103BD00021B1828A42F01002828204E0828A4FF68A
:103BE000EF731A408282704721B1828A42F0080244
:103BF000828204E0828A4FF6F7731A40828270470D
:103C000021B1828942F40042828103E08289C2F3B9
:103C10000E028281704721B1828A42F40062828260
:103C200004E0828A4FF2FF731A4082827047828AD0
:103C30004FF6FB731A408282828A0A43828270475F
:103C400021B1828A42F00202828204E0828A4FF627
:103C5000FD731A408282704702460020B1F5007F52
:103C600000D100BF13880B400BB1012000E0002001
:103C7000704701F40072B2F5007F00D100BFCA4363
:103C80000280704770B50246002400230025002002
:103C900040F66A16B14200D100BFC1F3421501F0EF
:103CA0001F03012606FA03F3012D02D19689334042
:103CB00006E0022D02D1168A334001E0968A334095
:103CC0000C12012606FA04F41688344013B10CB124
:103CD000012000E0002070BD10B50022002340F656
:103CE0006A14A14200D100BF0A1201249440A3B279
:103CF000DC43048010BD0000003801400044004057
:103D000000480040004C00400050004010B5044600
:103D1000FE48844208D10121C014FFF73BFD002179
:103D2000E014FFF737FDC4E0B4F1804F08D1012162
:103D30000846FFF73CFD00210120FFF738FDB8E001
:103D4000F348844208D101210220FFF730FD002111
:103D50000220FFF72CFDACE0EE48844208D101219F
:103D60000420FFF724FD00210420FFF720FDA0E040
:103D7000E948844208D101210820FFF718FD0021FD
:103D80000820FFF714FD94E0E448844208D10121A3
:103D90001020FFF70CFD00211020FFF708FD88E040
:103DA000DF48844208D101212020FFF700FD0021D7
:103DB0002020FFF7FCFC7CE0DA48844208D1012196
:103DC0004014FFF7E7FC00216014FFF7E3FC70E00C
:103DD000D548844209D10121C804FFF7DBFC00214A
:103DE0004FF40020FFF7D6FC63E0D048844209D1AD
:103DF00001210805FFF7CEFC00214FF48010FFF7EA
:103E0000C9FC56E0CA48844209D101214805FFF7A0
:103E1000C1FC00214FF40010FFF7BCFC49E0C5488D
:103E2000844208D101214020FFF7C1FC002140203D
:103E3000FFF7BDFC3DE0C048844208D1012180204D
:103E4000FFF7B5FC00218020FFF7B1FC31E0BB4853
:103E5000844208D101218015FFF7A9FC0021A0159B
:103E6000FFF7A5FC25E0B648844209D101210804EA
:103E7000FFF790FC00214FF48030FFF78BFC18E037
:103E8000B048844209D101214804FFF783FC002196
:103E90004FF40030FFF77EFC0BE0AB48844208D1C2
:103EA00001218804FFF776FC00214FF48020FFF702
:103EB00071FC10BD00220288944B98420ED0994BA1
:103EC00098420BD0B0F1804F08D0914B984205D06A
:103ED000904B984202D0904B984204D14FF68F738A
:103EE0001A404B881A438D4B984207D08C4B98420E
:103EF00004D04FF6FF431A40CB881A4302808B88C8
:103F000083850B880385814B98420BD0854B984263
:103F100008D08B4B984205D08A4B984202D08A4BEE
:103F2000984201D10B7A038601238382704770B5D2
:103F3000002400220023058C4FF6FE7635400584D0
:103F4000028C8388048B4FF68F752C40B51E2C4055
:103F50000D882C43751E2A400D892A434D882A431B
:103F60006A4DA8420BD06F4DA84208D0744DA842AC
:103F700005D0744DA84202D0734DA84213D14FF61C
:103F8000F7752A404D892A434FF6FB752A408D88E4
:103F90002A434FF6FF652B404FF6FF552B408D8986
:103FA0002B43CD892B4383800483CD88858602846F
:103FB00070BD70B5002400220023058C4FF6EF760B
:103FC00035400584028C8388048B48F6FF752C40AD
:103FD0004FF6FF452C400D884FF6FF7606EA052583
:103FE0002C434FF6DF752A400D8906EA05152A4352
:103FF0004D8806EA05152A43444DA84202D0494D92
:10400000A8421DD14FF67F752A404D894FF6FF76A5
:1040100006EA05152A434FF6BF752A408D8806EA41
:1040200005152A434FF6FF352B404FF2FF752B4005
:104030008D8906EA85052B43CD8906EA85052B4344
:1040400083800483CD880587028470BD70B5002409
:1040500000220023058C4FF6FF6635400584028C54
:104060008388848B4FF68F752C404FF6FC752C405F
:104070000D882C434FF6FF552A400D894FF6FF76E9
:1040800006EA05252A434D8806EA05252A431F4DE1
:10409000A84202D0234DA8421DD14FF2FF752A40FD
:1040A0004D894FF6FF7606EA05252A434FF6FF3580
:1040B0002A408D8806EA05252A434EF6FF752B40D7
:1040C0004DF6FF752B408D8906EA05152B43CD89EA
:1040D00006EA05152B4383808483CD888587028477
:1040E00070BD70B5002200230024058C4EF6FF76CB
:1040F00035400584038C8488828B48F6FF752A40FE
:104100004FF6FF452A400D8820E00000002C0140BA
:104110000004004000080040000C00400010004077
:104120000014004000340140004C014000500140A8
:104130000054014000180040001C004000200040D6
:104140000040014000440140004801404FF6FF7626
:1041500006EA05252A434DF6FF752B400D8906EA30
:1041600005352B434D8806EA05352B43FA4DA84209
:1041700002D0FA4DA84208D14BF6FF752C408D892C
:104180004FF6FF7606EA85152C4384808283CD881E
:10419000A0F84050038470BD828B4FF2FF331A4069
:1041A0008283828B4FF6FF7303EA01231A438283D3
:1041B0007047F0B50C461546002200210026078CFA
:1041C0004EF6FF7C07EA0C070784828B018C4FF6C2
:1041D000FF7707EA043640F6FF473A404FF6FF778D
:1041E00007EA05273A434FF6FF7707EA03373A43D2
:1041F000D94FB8420ED0D94FB8420BD0B0F1804F52
:1042000008D0D74FB84205D0D64FB84202D0D64FCB
:10421000B84206D14DF6FF77394046F4805739430E
:1042200005E047F6FF57394044F48057394382830D
:104230000184F0BD828B4FF6F3731A408283828B28
:104240000A4382837047F0B50C46154600220021D0
:104250000026078C4FF6FF6C07EA0C070784828B59
:10426000018C4FF6FF7707EA04264FF60C773A40A9
:104270004FF6FF7707EA03172F433A43B64FB8428A
:104280000ED0B64FB8420BD0B0F1804F08D0B44F2B
:10429000B84205D0B34FB84202D0B34FB84206D1AE
:1042A0004FF6FF57394046F48077394305E04FF227
:1042B000FF57394044F48077394382830184F0BD4D
:1042C000028B4FF2FF331A400283028B4FF6FF73CB
:1042D00003EA01231A4302837047F0B50C461546E2
:1042E000002200210026078C4FF6EF7C07EA0C071E
:1042F0000784028B018C4FF6FF7707EA041640F61D
:10430000FF473A404FF6FF7707EA03373A434FF645
:10431000FF7707EA05273A438F4FB8420ED08F4FF9
:10432000B8420BD0B0F1804F08D08D4FB84205D0C5
:104330008C4FB84202D08C4FB84206D14FF6DF778F
:10434000394046F01007394305E04FF65F773940B2
:1043500044F01007394302830184F0BD028B4FF60D
:10436000F3731A400283028B0A4302837047F0B54D
:104370000C46154600220021068C4FF6FE773E4083
:104380000684028B018C4FF60C7632407E1C06EAC6
:1043900003162E433243704EB0420ED06F4EB042E1
:1043A0000BD0B0F1804F08D06D4EB04205D06D4EAD
:1043B000B04202D06C4EB04206D14FF6FD7631408D
:1043C00044F00106314305E04FF6F576314044F004
:1043D0000106314302830184F0BD70B505460C46E9
:1043E0005D4885420ED05D4885420BD0B5F1804FC7
:1043F00008D05B48854205D05A48854202D05A48C9
:10440000854200D100E000BF208850B92389A288EE
:1044100061882846FFF7ABFFE1882846FFF79EFF3B
:1044200025E0208804280AD12389A28861882846AB
:10443000FFF753FFE1882846FFF742FF17E0208887
:1044400008280AD12389A28861882846FFF7FBFE45
:10445000E1882846FFF7EEFE09E02389A2886188FB
:104460002846FFF7A6FEE1882846FFF795FE70BDB7
:104470002DE9F04105460C4600260127608808B961
:10448000022600E00026A088012801D1022700E0D2
:1044900001272088A0B92389A28861882846FFF7D0
:1044A00066FFE1882846FFF759FF23893A463146DF
:1044B0002846FFF712FFE1882846FFF701FF13E0C7
:1044C0002389A28861882846FFF707FFE1882846EC
:1044D000FFF7F6FE23893A4631462846FFF747FFA5
:1044E000E1882846FFF73AFFBDE8F0810A884B884B
:1044F0001A438B881A43CB881A430B891A434B897A
:104500001A438B891A43A0F8442070474FF6FF7175
:10451000818000210180C1804180017270470021AB
:10452000018041808180C180018141818181C1817F
:104530007047002101804180012181800021C180DC
:10454000018170470021018041808180C18001810B
:104550004181818170470000002C014000340140FE
:104560000004004000080040000C004021B1028817
:1045700042F00102028004E002884FF6FE731A4006
:104580000280704731B1B0F8442042F40042A0F8F4
:10459000442005E0B0F84420C2F30E02A0F8442005
:1045A00070471AB183890B43838102E083898B436F
:1045B000838170478182704741EA0203A0F8483046
:1045C00070471AB183890B43838102E083898B434F
:1045D0008381704701894FF6F8721140018170475D
:1045E0000A46002101894FF68F731940114301815A
:1045F000704730B504460D4629462046FFF7F0FFC8
:10460000208940F00700208130BD2DE9F0410446AB
:104610000D4616461F46602D06D13B460122314607
:104620002046FFF75AFE05E03B4601223146204670
:10463000FFF79DFE29462046FFF7D2FF208940F074
:1046400007002081BDE8F08130B50C4600210189CA
:10465000C9B24FF6FF7505EA0325154325432943E3
:10466000018130BD2DE9F04105460E4617469846BA
:10467000002443463A4631462846FFF7E5FF2C8999
:104680004FF6F870044044F007044FF68F70044072
:1046900044F070042C81BDE8F081F0B504460D466D
:1046A00016461F463B46324629462046FFF7CCFFBA
:1046B000208940F480402081F0BD018582827047CE
:1046C0000A46002101884FF68F731940114301807B
:1046D0007047F0B50C4615461E4600210022002307
:1046E0000189028B038C4FF6F877394021434FF64E
:1046F000FC473A4040F201173A434FF6DD773B4022
:104700004FF6FF7707EA06172F433B4301810283E9
:104710000384F0BD0A460021018B4FF68F731940C8
:104720001143018370470A460021018B48F6FF734D
:1047300019404FF6FF7303EA0223194301837047C0
:104740000A460021818B4FF68F73194011438183F4
:1047500070470A460021818B48F6FF7319404FF6D7
:10476000FF7303EA022319438183704721B1028852
:1047700042F08002028004E002884FF67F731A4004
:104780000280704721B1828842F00402828004E0F6
:1047900082884FF6FB731A408280704721B182886D
:1047A00042F00802828004E082884FF6F7731A40D4
:1047B0008280704721B1828842F00102828004E049
:1047C00082884FF6FE731A40828070470A460021A5
:1047D000018B4FF6F77319401143018370470A4666
:1047E0000021018B4FF2FF7319404FF6FF7303EA6C
:1047F00002231943018370470A460021818B4FF63B
:10480000F77319401143818370470A460021818B59
:104810004FF2FF7319404FF6FF7303EA0223194367
:10482000818370470A460021018B4FF6FB731940C4
:104830001143018370470A460021018B4FF6FF3375
:1048400019404FF6FF7303EA0223194301837047AF
:104850000A460021818B4FF6FB7319401143818377
:1048600070470A460021818B4FF6FF3319404FF6FF
:10487000FF7303EA02231943818370470A4600212C
:10488000018B4FF67F7319401143018370470A462D
:104890000021018BC1F30E014FF6FF7303EA0223DF
:1048A0001943018370470A460021818B4FF67F73BD
:1048B00019401143818370470A460021818BC1F35F
:1048C0000E014FF6FF7303EA0223194381837047F9
:1048D0000A460021018C4FF6FD73194011430184F3
:1048E00070470A460021018C4FF6F77319401143B7
:1048F000018470470A460021018C4FF6DF7319408E
:104900004FF6FF7303EA02131943018470470A4606
:104910000021018C4FF67F7319404FF6FF7303EAB5
:1049200002131943018470470A460021018C4FF697
:10493000FF5319404FF6FF7303EA02231943018422
:1049400070470A460021018C4FF2FF7319404FF661
:10495000FF7303EA02231943018470470A460021CA
:10496000018C4DF6FF7319404FF6FF7303EA0233D3
:1049700019430184704730B5002301248C40A3B251
:10498000048C9C430484048C02FA01F5ADB22C43E0
:10499000048430BD30B5002304248C40A3B2048CC1
:1049A0009C430484048C02FA01F5ADB22C430484C8
:1049B00030BD70B50346002000241846183001258C
:1049C0008D40ACB21D8CA5431D8409B1082909D1C5
:1049D00000EB6100056825F070050560056815436A
:1049E00005600EE00D1FC5F34E052844056825F44B
:1049F000E045056005684FF6FF7606EA0226354376
:104A0000056070BD21B1028842F00202028004E01C
:104A100002884FF6FD731A400280704721B1028868
:104A200042F00402028004E002884FF6FB731A4051
:104A30000280704721B1828842F08002828004E0C7
:104A400082884FF67F731A408280704702884FF643
:104A5000F7731A40028002880A43028070478288F6
:104A60004FF68F731A40828082880A438280704793
:104A700002894FF6F8731A40028102890A430281C3
:104A8000704702894FF67F731A40028102890A43F8
:104A900002817047818470478185704781867047A5
:104AA0000187704781877047A0F8401070470288DF
:104AB0004FF6FF431A40028002880A430280704783
:104AC0000146888E70470146088F70470146888FDF
:104AD00070470146B1F8400070470146888C704726
:104AE0000146088D704702460020138A0B400BB127
:104AF000012000E000207047CA430282704730B5B1
:104B00000246002000230024158A05EA0103958946
:104B100005EA010413B10CB1012000E0002030BD12
:104B2000CA4302827047000010B50446FA48844226
:104B300008D101214015FEF72DFE00216015FEF77A
:104B400029FE17E0F548844208D101210015FEF73F
:104B500021FE00212015FEF71DFE0BE0F0488442E7
:104B600008D10121C803FEF715FE00214FF40040D3
:104B7000FEF710FE10BD30B502460020002350683D
:104B8000E84C20400D790C6844EA0524204350602D
:104B90009068E54C2040D1E902542C434D7944EA19
:104BA000450420439060D06A20F470000C7C641EA1
:104BB000E4B2234340EA0350D06230BD00210160DB
:104BC000017141718160C16001210174704721B19F
:104BD000826842F00102826003E0826822F00102F2
:104BE0008260704721B1826842F48072826003E083
:104BF000826822F480728260704710B50023CBB2C5
:104C00001AB144681C43446002E044689C43446019
:104C100010BD816841F008018160704701460020A5
:104C20008A6802F008020AB1012000E00020704703
:104C3000816841F0040181607047014600208A6864
:104C400002F004020AB1012000E00020704721B107
:104C5000826842F4A002826003E0826822F4A0022B
:104C600082607047014600208A6802F480020AB11F
:104C7000012000E00020704710B50A460021002303
:104C8000416821F46041531E41EA4331416010BD47
:104C900021B1426842F40062426003E0426822F4BB
:104CA000006242607047F0B504460D4600200021C6
:104CB000092D11DDE068A5F10A0606EB4607072677
:104CC00006FA07F18843A5F10A0606EB460603FA41
:104CD00006F10843E0600CE0206905EB4507072674
:104CE00006FA07F1884305EB450603FA06F1084387
:104CF0002061072A0FDA606B561E06EB86071F2617
:104D000006FA07F18843561E06EB860605FA06F1F9
:104D10000843606322E00D2A0FDA206BD61F06EBF2
:104D200086071F2606FA07F18843D61F06EB86067C
:104D300005FA06F10843206310E0E06AA2F10D06CF
:104D400006EB86071F2606FA07F18843A2F10D0637
:104D500006EB860605FA06F10843E062F0BD21B1D4
:104D6000826842F48012826003E0826822F480123A
:104D7000826070470146C86C80B2704766484C300C
:104D80000068704721B1426842F48062426003E0EB
:104D9000426822F480624260704721B1426842F466
:104DA0008052426003E0426822F4805242607047C1
:104DB0000A460021816821F4E04111438160704777
:104DC00021B1826842F40042826003E0826822F4EA
:104DD00000428260704721B1826842F40212826010
:104DE00003E0826822F402128260704701460020CC
:104DF0008A6802F400120AB1012000E00020704726
:104E0000F0B504461546002000220026092911DDD0
:104E1000E068A1F10A0707EB470C072707FA0CF235
:104E20009043A1F10A0707EB470703FA07F2104383
:104E3000E0600CE0206901EB410C072707FA0CF257
:104E4000904301EB410703FA07F210432061A06B86
:104E5000C0F30156EF1C06F1010CA7EB0C0707EBA2
:104E6000870C1F2707FA0CF29043EF1C06F1010C88
:104E7000A7EB0C0707EB870701FA07F21043A063C3
:104E8000F0BD10B50A4600210023816B21F44011CA
:104E9000531E41EA0351816310BD08B500230093FE
:104EA0000090009B0B440093009B1A6008BD08B55E
:104EB000024600200090009201F12800009B184457
:104EC00000900098006880B208BD0A460021416841
:104ED000164B19401143416070474162826270472E
:104EE0000A460021416821F01F01114341607047CB
:104EF00040B109490831096841F40001064A083205
:104F0000116007E004490831096821F40001024AF0
:104F10000832116070470000002401400028014061
:104F2000003C0140FFFEF0FFFDF7F1FFFFFD3FFFFA
:104F30000246002013680B400BB1012000E0002066
:104F40007047CA430260704770B5024600200023D4
:104F500000240B125568CEB205EA060415681D4000
:104F600015B10CB1012000E0002070BD00220A1232
:104F7000D34303607047000001684FF6FE72114092
:104F800001600021016041608160C1608D498842FB
:104F900008D18C490839496841F00F01894A083A1B
:104FA00051608AE087491431884208D1854908391F
:104FB000496841F0F001834A083A51607DE0814937
:104FC0002831884208D17F490839496841F4706125
:104FD0007C4A083A516070E07A493C31884208D1F5
:104FE00078490839496841F47041764A083A516075
:104FF00063E074495031884208D1724908394968E0
:1050000041F470216F4A083A516056E06D496431AD
:10501000884208D16B490839496841F47001694AEE
:10502000083A516049E067497831884208D16549BA
:105030000839496841F07061624A083A51603CE0C1
:105040006149884206D1011F096841F00F01021F22
:10505000116032E05C491431884208D15A49091F75
:10506000096841F0F001584A121F116025E05649C5
:105070002831884208D15449091F096841F47061F8
:10508000514A121F116018E04F493C31884208D143
:105090004D49091F096841F470414B4A121F1160C4
:1050A0000BE049495031884207D14749091F096837
:1050B00041F47021444A121F1160704710B500225C
:1050C000026847F6F0739A430C6A8B6823430C69B5
:1050D00023434C6923438C692343CC6923434C6AA3
:1050E00023438C6A23431A430260CB6843600B68F6
:1050F00083604B68C36010BD002101604160816026
:10510000C160016141618161C1610162416281628D
:10511000704721B1026842F00102026004E00268B7
:105120004FF6FE731A40026070471AB103680B43D2
:10513000036002E003688B4303607047416070477F
:105140000146486880B2704701460020002201F005
:1051500080531BB11C4B083B1A6802E0194B083BFB
:105160001A6802EA01030BB1012000E00020704739
:1051700000F0805119B11449091F086002E011497B
:1051800008394860704701460020002201F0805332
:105190001BB10D4B083B1A6802E00A4B083B1A682A
:1051A00002EA01030BB1012000E00020704700F08B
:1051B000805119B10449091F086002E0014908390A
:1051C000486070470800024008040240704770477A
:1051D0007047754600F02CF8AE4605006946534608
:1051E00020F00700854618B020B5FDF78BFFBDE81D
:1051F00020404FF000064FF000074FF000084FF03E
:10520000000B21F00701AC46ACE8C009ACE8C009CE
:10521000ACE8C009ACE8C0098D46704710B504463B
:10522000AFF300802046BDE81040FAF7C8BF000089
:1052300000487047C80D002001491820ABBEFEE7AA
:10524000260002007047000068520008000000209D
:10525000DC0000006C01000844530008DC00002062
:105260004C1300008801000800A24A04000000005E
:105270000000000001020304060708090000000006
:105280000000010000000100000001000000FFE03C
:105290000000000000000000000000000001030208
:1052A00000000000000000000000000000000000FE
:1052B00000000000000000000000000000000000EE
:1052C00000000000000000000000000000000000DE
:1052D000000080200000000000000000000000002E
:1052E00000000000000000000000000000000000BE
:1052F00000000000000000000000010000000000AD
:10530000000000000000000000000100000000009C
:105310000000000000000101010101000000000088
:105320000000E80300000000000000000000000092
:10533000000000000102030401020304060708093B
:045340000204060855
:0400000508000131BD
:00000001FF
