:020000040800F2
:1000000030140020B53200086102000863020008C5
:10001000670200086B0200086F0200080000000081
:100020000000000000000000000000007302000853
:10003000750200080000000077020008790200083D
:10004000CF320008CF320008CF320008CF3200088C
:10005000CF320008CF320008CF320008CF3200087C
:10006000CF320008CF320008CF320008DD10000880
:10007000CF320008CF320008CF320008CF3200085C
:10008000CF320008CF32000805120008CF32000836
:10009000CF320008CF320008CF320008CF3200083C
:1000A000CF320008CF320008CF320008CF3200082C
:1000B000790F0008CF320008CF320008CF32000895
:1000C000CF320008CF320008CF320008CF3200080C
:1000D000CF320008ED290008BF080008C32D000832
:1000E000CF320008CF320008CF320008CF320008EC
:1000F000CF320008CF320008CF320008CF320008DC
:10010000CF320008CF320008CF320008CF320008CB
:10011000610A0008150C0008CF320008CF32000831
:10012000CF320008CF320008CF320008CF320008AB
:1001300000F002F800F03AF80AA090E8000C8244BF
:100140008344AAF10107DA4501D100F02FF8AFF29C
:10015000090EBAE80F0013F0010F18BFFB1A43F0A5
:1001600001031847A8520000C8520000103A24BFEB
:1001700078C878C1FAD8520724BF30C830C144BF0C
:1001800004680C607047000000230024002500264E
:10019000103A28BF78C1FBD8520728BF30C148BFEA
:1001A0000B6070471FB51FBD10B510BD05F0F7F807
:1001B0001146FFF7F7FF00F009F805F015F903B451
:1001C000FFF7F2FF03BC05F019F9000002F0AAFFE7
:1001D0004FF4165002F06AFB4FF4965000F0FEFA0E
:1001E0004FF4965002F02AFD4FF4964000F0D0FBF9
:1001F0004FF4E13000F079FC00F0A4FD00F02EF99E
:1002000000F045F902F096FE02F0F6FF00F005FA64
:1002100001F0A0F801F00BF800F089F900F050F9B6
:1002200000F06CF941F61F41632000F077FE0021D9
:1002300040F2CF2002F010FE02F0F2FF02F018FBB5
:100240000648006840F003000449086005E001F03A
:10025000CAFF02F041FF01F0D0F8F8E7500000209B
:10026000704700BFFEE700BFFEE700BFFEE700BF2C
:10027000FEE7704770477047704700000CB50020DC
:10028000019000906C48006840F480306A49086032
:1002900000BF6948006800F4003000900198401CDD
:1002A0000190009818B90198B0F5A06FF1D162489B
:1002B000006800F4003010B10120009001E000203F
:1002C00000900098012843D15C48006840F010007D
:1002D0005A4908600846006820F003000860084694
:1002E000006840F002000860534840685249486086
:1002F0000846406848600846406840F480604860AE
:100300000846406820F47C1048600846406840F485
:10031000E81048600846006840F08070086000BF40
:100320004548006800F000700028F9D04248406855
:1003300020F00300404948600846406840F0020051
:10034000486000BF3C48406800F00C000828F9D124
:100350000CBD10B5FFF792FF10BD10B53648006810
:1003600040F00100344908600846406834490840BC
:100370003149486008460068324908402E49086003
:100380000846006820F4802008600846406820F491
:10039000FE0048604FF41F008860FFF7DAFF4FF05F
:1003A00000602949086010BD10B50021002000221E
:1003B000214B5B6803F00C0121B1042906D0082908
:1003C00028D107E0214B224C236027E01F4B204C13
:1003D000236023E0184B5B6803F47010164B5B68D6
:1003E00003F48032022303EB904022B9194B4343BC
:1003F000174C23600DE0104B5B6803F4003323B10E
:10040000144B4343124C236003E0104B4343104C06
:10041000236003E00D4B0E4C236000BF00BF064B72
:100420005B68C3F303130C4CE15C094B1B68CB40C6
:10043000074C236010BD0000001002400020024065
:100440000000FFF8FFFFF6FE08ED00E000127A0062
:100450000000002000093D000400002008B5012133
:10046000202003F063FA4FF40040ADF800001020A4
:100470008DF8030003208DF802006946CB4802F096
:1004800099FF4FF40041C94803F041F808BD08B591
:100490000121042003F04AFA4FF40060ADF8000097
:1004A00010208DF8030003208DF802006946C04833
:1004B00002F080FF4FF40061BD4803F028F808BD4A
:1004C00008B50121082003F031FA4FF44040ADF89F
:1004D000000010208DF8030003208DF8020069460B
:1004E000B44802F067FF4FF48041B24803F00FF8C0
:1004F0004FF40041AF4803F00AF808BD08B50121E8
:10050000212003F013FA4FF48070ADF800001020A2
:100510008DF8030003208DF802006946A34802F01D
:1005200049FF4FF48071A14802F0F1FF08BD08B502
:100530000121212003F0FAF95020ADF8000010202D
:100540008DF8030003208DF802006946974802F0F9
:1005500031FF4021954802F0DAFF1021934802F064
:10056000D6FF08BD94480068401C934908600846BF
:1005700000689249884203D20120914908600BE04B
:100580008D4800688F49884203D200208C4908605A
:1005900002E0002088490860704789490860704778
:1005A00010B504462CB14FF48071804802F0AFFFC3
:1005B00004E04FF480717D4802F0ABFF10BD10B530
:1005C00004462CB14FF40061794802F0A2FF04E028
:1005D0004FF40061764802F09AFF10BD10B5044652
:1005E00004F0020028B14FF48041724802F08FFFFE
:1005F00004E04FF480416F4802F08BFF04F00100EB
:1006000028B14FF400416B4802F081FF04E04FF441
:100610000041684802F07DFF10BD08B5012140206F
:1006200003F084F93C20ADF8000002208DF80200B0
:1006300010208DF803006946634802F0BBFE08BD38
:10064000082872D2DFE800F094432223047A53543E
:100650005E49097869B101215D4A11605D4AC2F8BD
:100660008C1100215A4A121D11605A4AC2F8881191
:100670000BE00021564A1160564AC2F88C11544AC8
:10068000121D1160534AC2F888118DE000BF524913
:10069000097879B101214E4A121D116000214D4A9D
:1006A000C2F890114A4A121F11600121494AC2F84A
:1006B00088110BE00021464A121D1160454AC2F81C
:1006C0008811434A1160434AC2F88C116CE0012141
:1006D0003F4A121D116000213E4AC2F890113C4A67
:1006E000121F116001213B4AC2F888115CE000BF73
:1006F0003649097839B10121354A11600021354A5E
:10070000C2F88C1105E00021314A1160314AC2F86B
:100710008C113149097849B101212D4A121D11600E
:1007200000212C4AC2F8881107E02FE00021284A56
:10073000121D1160274AC2F8881135E02349097853
:1007400039B10121224A11600021224AC2F88C11DC
:1007500005E000211E4A11601E4AC2F88C110121D9
:100760001B4A121D116000211A4AC2F888111BE0B1
:100770000021174A121D1160164AC2F89011144A3E
:10078000121F1160134AC2F888110DE00021104AAF
:10079000121D11600F4AC2F890110D4A121F11600C
:1007A0000C4AC2F8881100BF00BF70470014014016
:1007B00000080140000C01401400002020A10700A7
:1007C000BC81224240420F00001801402800002056
:1007D00090012342000023422A00002010B586B079
:1007E00004460121480403F0AEF80121052003F07E
:1007F0009DF8F84803F06CF90420ADF814000320CC
:100800008DF8160018208DF8170005A9F24802F09F
:10081000D1FD0820ADF8140004208DF8170005A9BB
:10082000ED4802F0C7FD26208DF8000003208DF86A
:1008300001008DF8020001208DF80300684603F0E6
:10084000DEF801940020ADF80800ADF80A00ADF81C
:100850000C00ADF810000C20ADF80E0001A9DD4829
:1008600003F079F9012240F22551DA4803F00BFA3E
:100870000121D84803F0FBF906B010BD10B50446BD
:100880002146D44803F060FA00BF4021D14803F06C
:10089000C9FA0028F9D010BD10B5044603E014F8D9
:1008A000010BFFF7EBFF20780028F8D110BD10B541
:1008B000012240F22771C74803F0E5F910BD10B5D9
:1008C000002440F22551C34803F0C2FA012837D171
:1008D00040F22551BF4803F0B2FAC0480088012811
:1008E00012D1BC4803F034FAC4B2BD4800782428C1
:1008F00004D1402C02D10020B8490880B8480470C7
:100900000020B849087042E0B24803F021FAC1B2B1
:10091000B44802780078401CB24B1870B248815439
:1009200018460078032832DBAF4801F004FE0020AF
:10093000AC490870AA4908700120A849088026E03F
:1009400040F22771A34803F083FA00B3A748007868
:1009500005280CDAA648A54A1278815C9D4803F068
:10096000F3F9A2480078401CA04908700FE000206D
:100970009E490870002240F22771964803F083F9DF
:10098000944800F0BFFE10B100209A49087010BDD5
:1009900010B586B004460121102002F0C7FF0121E6
:1009A000C80402F0D0FF4FF48060ADF814001820A6
:1009B0008DF8170003208DF8160005A98E4802F067
:1009C000F9FC4FF40060ADF8140004208DF8170016
:1009D00005A9894802F0EEFC01940020ADF808005A
:1009E000ADF80A00ADF80C00ADF810000C20ADF821
:1009F0000E0001A9814803F0AEF834208DF8000004
:100A000003208DF801008DF8020001208DF803000D
:100A1000684602F0F4FF012240F22551774803F0C6
:100A200032F90121754803F022F906B010BD10B566
:100A300004462146714803F087F900BF40216F4802
:100A400003F0F0F90028F9D010BD10B5044603E01A
:100A500014F8010BFFF7EBFF20780028F8D110BD48
:100A600010B5002440F22551644803F0F1F9012843
:100A700032D163480088012815D1604803F068F935
:100A8000C4B2FF2C01D0BF2C26D100205C490880C5
:100A90005C490870084601780078401C594A10707B
:100AA0005948445418E0554803F052F9C1B255482A
:100AB00002780078401C534B1870534881541846F4
:100AC0000078052808DB504801F0ADFE00204D49B4
:100AD000087001204A49088010BD10B5012240F27B
:100AE0002771464803F0CFF810BD10B586B0044614
:100AF0000121302002F01AFF0121080502F023FF36
:100B00004FF48050ADF8140018208DF81700032022
:100B10008DF8160005A9384802F04CFC0420ADF809
:100B200014008DF8170005A9384802F043FC019421
:100B30000020ADF80800ADF80A00ADF80C00ADF8E3
:100B400010000C20ADF80E0001A9314803F003F8A5
:100B500035208DF8000003208DF801008DF802008B
:100B600001208DF80300684602F049FF012240F29F
:100B70002551274803F087F80121254803F077F82D
:100B800006B010BD10B504462146214803F0DCF83C
:100B900000BF40211E4803F045F90028F9D010BDE0
:100BA00070B505460C46002600BF05E014F8010BA1
:100BB000FFF7E8FF701CC6B2AE42F7DB70BD10B5A0
:100BC000044603E014F8010BFFF7DCFF207800284F
:100BD000F8D110BD00440040000801401A00002078
:100BE000180000201C000020340100201D000020FF
:100BF000260100203D00002000100140004C004074
:100C00001E000020200000200801002000140140E8
:100C10000050004010B5002440F22551414803F037
:100C200017F9012833D14048008801280FD13D48E9
:100C300003F08EF8C4B23D480078FD2804D1DF2CC3
:100C400002D10020384908803848047048E035480F
:100C500003F07EF8C1B2364802780078401C344B6D
:100C60001870344881540078801E194609788842EB
:100C700036DC30490878491C01F062FD00202C491F
:100C800008702A49087001202749088028E040F2AE
:100C90002771244803F0DCF810B3274880782749EF
:100CA000097888420CDD2448244A1278815C1D486A
:100CB00003F04AF821480078401C204908700FE0F2
:100CC00000201E490870002240F22771154802F0EA
:100CD000DAFF144800F016FD10B100201849087022
:100CE00010BD70B505460C46FD202070DF206070F9
:100CF000A570012240F227710A4802F0C4FF70BDBE
:100D000010B502460B461046002104E05C5C04442A
:100D1000E0B24C1CE1B2141F8C42F7DCC443641CEB
:100D2000E0B210BD00500040220000202100002051
:100D300024000020EA000020DC0000202500002024
:100D40003C00002008B50121082002F0EFFD4FF41F
:100D50000070ADF8000010208DF8030003208DF81E
:100D600002006946664802F025FB4FF48070ADF83A
:100D7000000002208DF8020004208DF8030069466F
:100D80005F4802F017FB0121402002F0CFFD012057
:100D9000ADF8000010208DF8030003208DF802004C
:100DA0006946584802F006FB08BD70B504460020AD
:100DB00055490860052002F0F2F901205349C1F8B5
:100DC0008001142002F0EBF9002051490860052051
:100DD00002F0E5F900251DE001204D49086004F00E
:100DE000010050B14FF4167002F0B5F900204849E7
:100DF0000860C82002F0AFF909E0C82002F0ABF9A2
:100E00000020434908604FF4167002F0A4F9641002
:100E1000681CC5B2082DDFDB01203D49086070BDAC
:100E200010B50220FFF7C1FF1E2002F0B8F9F22032
:100E3000FFF7BBFF10BD10B50120FFF7B6FF1E2066
:100E400002F0ADF9F220FFF7B0FF10BD10B50020A1
:100E5000FFF7ABFF1E2002F0A2F9F220FFF7A5FF7B
:100E600010BD10B5FE20FFF7A0FF1E2002F097F97D
:100E700010BD10B504465A2002F091F92046FFF744
:100E800094FF1E2002F08BF910BD70B504460D468C
:100E90001646FF2C2DD02EB1FFF7E3FF00201D4991
:100EA000087016E01B480078A04212D0042C02D132
:100EB000FFF7B6FF0BE0032C02D1FFF7BCFF06E003
:100EC000022C02D1FFF7C2FF01E0FFF7CAFF114871
:100ED000047045F0E00510480078A8420ED005F0F7
:100EE000E000E0280AD12846FFF7C3FF0A48057052
:100EF00004E0FFF7A0FFFF200649087070BD000066
:100F0000000C0140001801408001234200002342F0
:100F1000A481214226000020270000207FB505463D
:100F20000C460121084602F00EFDADF80850ADF860
:100F300004400020ADF80A00ADF8060001A94FF00A
:100F4000804003F09DF801221146900703F00FFC4A
:100F50001C208DF8000002208DF8010003208DF880
:100F6000020001208DF80300684602F048FD0121CF
:100F7000880703F0E1FB7FBD10B50121880703F06E
:100F8000A4FE002848D025480078192190FBF1F2F2
:100F900001FB120068B92248007808B9012000E07E
:100FA00000201F4908701F48006840F010001D49CC
:100FB00008601B480078FFF7F0FA1849087800EB42
:100FC000D0714910A0EB410141B9012016490870C8
:100FD0001448006840F02000124908600F4800786B
:100FE000642190FBF1F201FB120050B90F48007828
:100FF00008B9012000E000200C49087000200749D2
:10100000087006480078401C0449087002F01CF97A
:101010000121880703F06AFE10BD00002B000020AC
:101020002800002050000020290000202A00002075
:1010300010B50446042301222146C04803F019FFDD
:101040000121BE4803F0E9FE00BF0221BB4804F0C5
:1010500055F80028F9D0B94803F072FF10BD00B56B
:1010600087B001214FF4017002F060FC0120ADF85F
:10107000180000208DF81B0006A9B14802F09AF96B
:10108000002001908DF8080001208DF809004FF430
:10109000602003900020049001208DF8140001A925
:1010A000A64803F04EFE042301220021A34803F0CA
:1010B000E0FE0121A14803F070FE00BF9F4803F04D
:1010C00093FE0028FAD19D4803F098FE00BF9B488C
:1010D00003F099FE0028FAD107B000BD10B5022038
:1010E00004F037F960B1022004F047F9934803F0A7
:1010F00027FF9449086094480068401C92490860A2
:1011000010BD00B593B001214FF4017002F00EFC48
:101110000121084602F0FDFB0120ADF84800002047
:101120008DF84B0012A9864802F044F9874804F074
:1011300009F882484C3007908248089000200990B6
:1011400001200A9000200B900C904FF480700D90BD
:1011500080000E9020200F9000021090002011902F
:1011600007A97A4804F090F801220221774804F098
:10117000C2F80121754804F0B2F80B208DF8180070
:1011800000208DF8190003208DF81A0001208DF839
:101190001B0006A802F033FC002001908DF8080027
:1011A00001208DF809004FF4602003900020049086
:1011B00001208DF8140001A9604803F0C2FD04234A
:1011C000012200215D4803F054FE01215B4803F039
:1011D000EFFD0121594803F0E0FD00BF574803F03F
:1011E00003FE0028FAD1554803F008FE00BF53481B
:1011F00003F009FE0028FAD10121504803F00DFE4A
:1012000013B000BD10B54D4803F09AFE50494E4A48
:10121000126821F812004C480068401C4A490860D6
:1012200008460068142801D30020086010BD00B5EE
:1012300087B001214FF4017002F078FB12208DF885
:10124000180000208DF8190003208DF81A000120E5
:101250008DF81B0006A802F0D2FB0120ADF81400A7
:1012600000208DF8170005A9354802F0A3F80020EA
:1012700000908DF8040001208DF805004FF46020E7
:1012800002900020039001208DF8100069462B4841
:1012900003F057FD042301220021284803F0E9FD53
:1012A0000121264803F079FD00BF244803F09CFD8E
:1012B0000028FAD1214803F0A1FD00BF1F4803F028
:1012C000A2FD0028FAD101224FF408711B4803F057
:1012D0007AFD0121194803F0A0FD07B000BD70B5EB
:1012E00002460C461588168801210DE032F81100DF
:1012F000B04201DD32F8116032F81100A84201DA83
:1013000032F81150481C81B2A142EFDB00210023CA
:1013100004E032F811000344481C81B2A142F8DB1A
:101320009B1B5B1BA01EB3FBF0F398B270BD00B516
:1013300014210748FFF7D3FF00BD0000002401403F
:10134000000801402C00002030000020080002406E
:10135000460D002008B50121402002F0E7FA4FF4C5
:101360002060ADF8000002208DF8020004208DF806
:10137000030069464C4802F01DF808BD00204B49A7
:10138000096801B9012049490831096809B980F0A3
:101390000200704710B585B0FFF7F0FF03464448E0
:1013A000007828B90120424908708DF8003015E016
:1013B0003F480078401E1DF80000984207D03C4886
:1013C00001780078401C3A4C20700DF80130384804
:1013D0000078142802D1002035490870002206E068
:1013E0003448805C984200D103E0501CC2B2042A09
:1013F000F6DB00BF104605B010BD30B5FFF7BEFFED
:1014000005462D4804782B48005DA8424AD0032C9D
:1014100001D1002401E0601CC4B22648005DA8424E
:1014200018D126480078401C24490870002024491F
:10143000087022480078042832DB00201F49087019
:101440005520204908802048006840F004001E49CB
:10145000086025E0184804780CB9032401E0601EF8
:10146000C4B21448005DA84217D100201349087087
:1014700013480078401C1249087008460078042878
:101480000EDB00200870DD200E4908800E48006841
:1014900040F004000C49086002E0FFF77BFF0446BF
:1014A0000548047030BD00000018014024012342AB
:1014B0003900002034000020380000203A000020CD
:1014C0003B000020760000205000002001460A2248
:1014D00091FBF2F291B2B1F5827F01DB042026E0AC
:1014E000E22907DBFE4A1278032A01DC03201EE012
:1014F00004201CE0E12901DB032018E0D12907DBEF
:10150000F74A1278022A01DC022010E003200EE0E4
:10151000D02901DB02200AE0BF2907DBF04A12785C
:10152000012A01DC012002E0022000E00120EC4A57
:10153000107070470020EB490988642904D101200C
:101540000021E94A11701BE0E8490988642904D1A7
:1015500000200021E44A117012E0E54909780229CF
:101560000CD0E1490978491CDF4A1170114609780D
:10157000042905DB02200021117001E0DC49087814
:10158000DB490870704770B501F050FE08B11124B6
:1015900000E02224112C40D1D648007811282BD10C
:1015A000D5494870FFF7C6FFD4490870084600784F
:1015B00030B90620D04908700020D149087017E0E2
:1015C000CE480078012806D10520CB4908700020BC
:1015D000CB4908700CE0CA4801780078401CC84A22
:1015E00010700A2904DD0020C349087011460870F4
:1015F0000020C449087031E0C24801780078401CDE
:10160000C04A1070082904DBBA4804700020114653
:1016100008700020BA49087020E0B64800782228F7
:101620000CD1B5494870FFF782FE0546FFF74EFF23
:10163000B14908700020B34908700CE0B148017846
:101640000078401CAF4A1070082904DBA9480470D8
:101650000020114608700020A949087070BD10B51F
:1016600000240120A8490860A849C1F88C01002085
:10167000A549091D0860A549C1F888010120FEF7A8
:101680008FFF0320FEF7AAFF00220721FF20FFF7AC
:10169000FCFB05E04FF47A7001F081FD601CC4B2E0
:1016A000032CF7DB01209849091D086000209749A9
:1016B000C1F890019449091F086001209349C1F8BD
:1016C0008801002405E04FF47A7001F068FD601C89
:1016D000C4B2032CF7DB00208B4908608B49C1F8AA
:1016E0008C018949091D08608849C1F88801884B27
:1016F0009A7819785878FFF7C8FB86480088FEF773
:101700006DFF10BD2DE9F0410646002400278248F8
:1017100086427DD18148006810B90120BDE8F08182
:10172000002507E00120A8407C490968084000B175
:1017300002E06D1C202DF5DB00BF0120A840B0F5B4
:10174000007F66D013DC202871D008DC022826D068
:10175000042872D008286CD010286BD1EFE0402804
:1017600069D0802868D0B0F5807FF6D1C7E1B0F5A8
:10177000005F7DD009DCB0F5806F7AD0B0F5006FE6
:1017800078D0B0F5805FE8D1BFE2B0F5804F72D07D
:10179000B0F5004F70D0B0F5803FDED175E3032483
:1017A00000222146641C5E4842545E4800880212B2
:1017B0002146641C5A4842545A4802782146641C07
:1017C000574842545848008802122146641C544825
:1017D0004254554802782146641C514842545348AB
:1017E000008802122146641C4D4842544F4802783A
:1017F0002046611CCCB24A490A54611CC8B248490F
:10180000C91CFFF77DFA46490855601CC4B201E0C7
:10181000ABE3C4E12046FFF764FA012044490870B5
:101820003E48006820F002003C4908609CE3D2E09A
:1018300003E030E096E301E125E1032401222146A3
:10184000641C374842543B48008802122146641CFD
:1018500033484254374802782146641C3048425489
:10186000601C2F49C91CFFF74BFA2D49085504E0AD
:1018700091E2E8E122E24DE3C2E2641C2046FFF778
:1018800030FA01202A4908702448006820F004003A
:101890002249086068E3032402222146641C204890
:1018A0004254154802782146641C1D48425412488F
:1018B00042782146641C1A484254601C1849C91CCD
:1018C000FFF71EFA16490855641C2046FFF709FA6F
:1018D0000120174908701148006820F008002BE02B
:1018E0007C000020B80000207E000020BA0000200C
:1018F0007D00002081000020700000207800002082
:10190000800000207F00002090012342000023423D
:10191000540000207A0000200050004040000020C9
:10192000DC0000206A0000206C0000206E00002017
:101930003C00002076000020FE49086014E30324E8
:1019400003222146641CFC484254FC4800880212D1
:101950002146641CF8484254F84802782146641C29
:10196000F5484254F548408802122146641CF2486A
:101970004254F24882782146641CEF484254EF48B2
:10198000808802122146641CEB484254EB480279DD
:101990002046611CCCB2E8490A54E848027A204645
:1019A000611CCCB2E4490A54611CC8B2E249C91CAA
:1019B000FFF7A6F9E0490855601CC4B22046FFF7BE
:1019C00090F90120DE490870DA48006820F0100024
:1019D000D8490860C8E2032404222146641CD64882
:1019E0004254D84802782146641CD3484254D54812
:1019F00042782146641CD0484254D248827821461D
:101A0000641CCD484254CF48C2782146641CCA4861
:101A10004254601CC849C91CFFF772F9C6490855F1
:101A2000641C2046FFF75DF90120C5490870C148D4
:101A3000006820F02000BF49086095E203240522D9
:101A40002146641CBC48425400222146641C425476
:101A50002146641C42542146641C4254601CB64911
:101A6000C91CFFF74DF9B4490855641C2046FFF71F
:101A700038F90120B2490870AE48006820F04000F3
:101A8000AC49086070E2032406222146641CAA487F
:101A90004254AD4842782146641CA7484254AA48A3
:101AA00082782146641CA4484254A7480278214603
:101AB000641CA1484254A448008B02122146641CB5
:101AC0009D484254A048027E2146641C9A484254D4
:101AD000611CC8B29849C91CFFF712F9964908550C
:101AE000601CC4B22046FFF7FCF80120944908703E
:101AF0009048006820F080008E49086034E203249A
:101B000007222146641C8C4842548F48C2782146E3
:101B1000641C894842548C4802792146641C8648DA
:101B20004254894842792146641C8348425486487D
:101B300082792146641C804842548348C2792146F8
:101B4000641C7D4842548048027A2046611CCCB215
:101B500079490A547C48427A2046611CCCB27649C5
:101B60000A547948827A2046611CCCB272490A54E0
:101B7000611CC8B27049C91CFFF7C2F86E4908550C
:101B8000601CC4B22046FFF7ACF801206C49087015
:101B90006848006820F4807066490860E4E1032426
:101BA00008222146641C644842546748008A021295
:101BB0002146641C604842546348027C2146641CF0
:101BC0005D4842546048408A02122146641C5A48CB
:101BD00042545D48827C2146641C574842545A480E
:101BE000808A02122146641C534842545648027DA2
:101BF0002046611CCCB250490A545348C08A021294
:101C00002046611CCCB24C490A544F48827D204684
:101C1000611CCCB248490A54611CC8B24649C91C6F
:101C2000FFF76EF844490855601CC4B22046FFF720
:101C300058F80120424908703E48006820F40070BE
:101C40003C49086090E1032409222146641C3A487B
:101C500042543D48C27A2146641C374842543A48AF
:101C6000027B2146641C344842543748427B21465B
:101C7000641C314842543448827B2146641C2E48FF
:101C800042543148C27B2146641C2B484254611C9B
:101C9000C8B22949C91CFFF733F827490855601C09
:101CA000C4B22046FFF71DF80120254908702148DD
:101CB000006820F480601F49086055E103240A226F
:101CC0002146641C1C484254204802782146641C6A
:101CD000194842541D4842782146641C1648425413
:101CE000601C1549C91CFFF70BF813490855641C03
:101CF0002046FEF7F6FF0120114908700D480068E4
:101D000020F400600B4908602EE103240B222146D9
:101D1000641C094842540E48008802122146641C83
:101D2000054842540A4802782146641C024842543D
:101D300007480FE040000020DC0000206E0D00206E
:101D40003C00002098000020980D00206600002034
:101D5000A6000020408802122146641CF848425424
:101D6000F84882782146641CF5484254601CF449C6
:101D7000C91CFEF7C5FFF2490855641C2046FEF752
:101D8000B0FF0120F0490870F048006820F480504E
:101D9000EE490860E8E003240C222146641CE84870
:101DA0004254EB48008802122146641CE448425425
:101DB000E74802782146641CE1484254E54800881F
:101DC00002122146641CDE484254E2480278214651
:101DD000641CDB484254601CD949C91CFEF790FFC3
:101DE000D7490855641C2046FEF77BFF0120D649E1
:101DF0000870D648006820F40050D4490860B3E069
:101E000003240E222146641CCD484254D248008847
:101E100002122146641CCA484254CF480278214627
:101E2000641CC7484254CC48808802122146641C76
:101E3000C3484254C84802792146641CC0484254F1
:101E4000C548408802122146641CBD484254C2481D
:101E500082782046611CCCB2B9490A54611CC8B2D0
:101E6000B749C91CFEF74CFFB5490855601CC4B200
:101E70002046FEF736FF0120B3490870B3480068DA
:101E800020F40040B14908606EE003240F2221468F
:101E9000641CAB484254B048C08802122146641CFE
:101EA000A7484254AC4882792146641CA448425455
:101EB000A948408902122146641CA1484254A64800
:101EC000827A2146641C9E484254A348008902122B
:101ED0002146641C9A4842549F48027A2146601C5D
:101EE000C4B297484254611CC8B29549C91CFEF758
:101EF00007FF93490855601CC4B22046FEF7F1FE67
:101F00000120914908709148006820F480308F4981
:101F1000086029E003240D222146641C88484254AD
:101F20008E48408902122146641C854842548B48E1
:101F3000827A2146641C82484254601C8049C91C34
:101F4000FEF7DEFE7E490855641C2046FEF7C9FEFA
:101F500001207D4908707D48006820F010007B4911
:101F6000086001E0012700BFCAE07D48864225D114
:101F70007C48006810B90120FFF7D0BB002507E0BE
:101F80000120A84077490968084000B102E06D1CB3
:101F9000022DF5DB00BF0120A84001280BD100F085
:101FA00015FE0120704908706E48006820F001009D
:101FB0006C49086001E0012700BFA1E06B48864240
:101FC000D2D16B48006808B90120D5E7002507E0A9
:101FD0000120A84066490968084000B102E06D1C74
:101FE000202DF5DB00BF0120A840042839D004DCF7
:101FF000012807D002287DD11AE008284BD01028EC
:102000007BD162E024205B49087040204870F020BA
:1020100088700020C8700871FEF749FC01205649FD
:1020200008705348006820F001005149086066E0DC
:1020300024205049087040204870F12088704F4893
:102040000078C8704D4880780871FEF730FC012098
:10205000494908704648006820F002004449086079
:102060004DE024204349087040204870F2208870D9
:1020700042480079C8704148808800120871FEF714
:1020800016FC01203C4908703948006820F0040023
:102090003749086033E024203649087040204870F2
:1020A000F420887035488079C8703448C0880012A0
:1020B0000871FEF7FCFB01202F4908702C480068CE
:1020C00020F008002A49086019E0242029490870F6
:1020D00040204870F32088700020C8700871FEF717
:1020E000E6FB0120244908702148006820F0100018
:1020F0001F4900E001E0086001E0012700BF00BFC8
:10210000384639E71E488078A0B11E4800881E492D
:10211000098888420ED17F2019494870FF20087035
:10212000002088701020C8700848006840F0200027
:10213000064908601448008812490880704700006A
:10214000DC000020A60000203C0000204000002011
:1021500072000020740000207A0D00206E0D002017
:1021600000380140440000208C0000200044004062
:102170004C000020260100203D0000205A000020D5
:10218000980000208200002096000020F848007887
:10219000002827D0F7480088F749098888421DD1D0
:1021A0000020F3498882C882488208824872887277
:1021B000FF20C87048710871887148708870C871B4
:1021C00008720020087008734873C8728873C87357
:1021D000EA48006840F4B060E8490860E6480088D2
:1021E000E4490880704710B5E5480068002872D0BF
:1021F000002407E00120A040E1490968084000B13F
:1022000002E0641C202CF5D300BF0120A040B0F5F3
:10221000807F7DD012DC10285ED008DC012878D0C9
:10222000022877D0042876D0082853D1CAE0202885
:102230001CD0402870D08028F7D1E9E0B0F5005FCD
:102240006BD009DCB0F5007F68D0B0F5806F66D048
:10225000B0F5805FE9D14BE1B0F5804F72D0B0F5B9
:10226000004F70D0B0F5803FDFD121E1C448006855
:1022700020F02000C2490860BD48007858B1BF482E
:10228000006840F40070BD490860BE48007810B98D
:10229000BD48FFF737FABD480079D8B1B7480068A4
:1022A00040F48050B5490860B848408810B9002013
:1022B000B6490871B548007918B10120FEF77FF9D9
:1022C00002E00020FEF77BF9AE48007810B9AE4876
:1022D000FFF718FA2DE12DE1A948006820F0100061
:1022E000A7490860AA49C878FEF7AAF9FFF74BF991
:1022F000FFF74CFFFFF706FFA048006840F018000A
:102300009E4908609A48007868B10846006807E06E
:102310009EE024E030E042E067E0D6E0ABE0B1E0F0
:1023200040F4B06008609B48807828B1934800680A
:1023300040F020009149086097494978222903D14B
:10234000012102E0A9E076E000210846FEF728F925
:102350008C48007810B98C48FFF7D4F9E9E08C4B31
:102360009A7819785878FEF790FD8548006820F033
:10237000010083490860DCE08048006840F002000A
:102380007E4908607E48006820F002007C490860B1
:102390007C48007810B97C48FFF7B4F9C9E0774869
:1023A000006840F00400754908607548006820F036
:1023B0000400734908607348007810B97248FFF749
:1023C000A1F9B6E06D48006840F400606B49086010
:1023D0006B48006820F00800694908606948007887
:1023E00010B96948FFF78EF9A3E06C48006840F027
:1023F00001006A4908606248006820F040006049B6
:1024000008606748007810B96648FFF77BF990E0EC
:102410006548006840F00E0063490860584800684D
:1024200020F08000564908606048007810B9604884
:10243000FFF768F97DE05148006840F480404F495B
:1024400008605048007810B94F48FFF75BF970E01A
:102450005548006840F0010053490860484800684A
:1024600020F48070464908605048007810B9504800
:10247000FFF748F95DE04248006820F400704049E9
:10248000086056E04B48007800F039FD3C48006891
:1024900020F480603A4908604BE047480088FEF726
:1024A0009DF83748006820F480403549086040E0D6
:1024B0003248006840F4C030304908603148007844
:1024C00010B93148FFF71EF900BF2D48006820F40D
:1024D00000502B4908602948006840F40050274903
:1024E00008602848007810B92748FFF70BF920E06A
:1024F0000020324908800120314908802A480068BC
:1025000040F01000284908601D48006820F4805001
:102510001B4908602548007810B92548FFF7F2F8F4
:10252000FFF79DF81648006840F400501449086011
:1025300000BF00BF10BD0178E0391E2916D2DFE8C8
:1025400001F0585F6D86667993D0A0AEA7B5C3BC85
:10255000D0D0D0D0D0D0D0D0D0D0D0D00F434A51CE
:102560008178427841EA0221164A1180B9E00000E0
:10257000980D0020840000208E00002040000020E4
:10258000500000203C00002000500040A600002029
:10259000540000209800002070000020440000201B
:1025A0008C000020003801404C0000203D0000203D
:1025B00000440040790000207A00002074000020D0
:1025C000720000206E0D00208178427841EA0221DD
:1025D000A94A518085E08178427841EA0221A64AE1
:1025E00091807EE08178427841EA0221A24AD1803E
:1025F00077E08178427841EA02219F4A118070E0B9
:102600008178427841EA02219B4A518069E08178D1
:10261000427841EA0221984A118162E00A21974AF0
:102620001170417851709649096841F00801944A47
:10263000116056E08178427841EA0221914A118086
:102640008F49096841F002018D4A116049E08178A3
:10265000427841EA0221884A51818949096841F456
:102660000041874A11603CE08178427841EA0221CA
:10267000854A11808249096841F40051804A1160FD
:102680002FE08178427841EA0221804A118028E0D7
:102690008178427841EA02217C4A918021E0817868
:1026A000427841EA0221794A51801AE081784278E1
:1026B00041EA0221754AD18013E08178427841EAEB
:1026C0000221724A51810CE08178427841EA02216C
:1026D0006E4A11816A49096841F48031684A116083
:1026E00000BF00BF704730B50346002204E08C5C99
:1026F0001C44E3B2541CE2B2C41E9442F7DCF3B9AA
:102700000C78012C04D0022C0AD0042C16D10EE037
:102710005B4C246840F202252C43594D2C600DE09F
:10272000574C246844F00404554D2C6006E0544C8A
:10273000246844F40054524D2C6000BF00BF30BDEB
:1027400030B50346002204E08C5C1C44E3B2541C08
:10275000E2B2C41E9442F7DC002B63D10C78092C42
:102760005FD2DFE804F05E0515223A5E505746005E
:102770004C78474D2C708C786C70CC78AC700C79A0
:10278000EC703F4C246844F001043D4D2C6048E05F
:102790008C784D7844EA05243E4D2C80384C2468D2
:1027A00044F48044364D2C603BE04C783A4D6C80CC
:1027B0008C782C800C79CD7844EA0524364DAC8099
:1027C0008C794D7944EA0524334DEC802C4C2468F7
:1027D00044F080042A4D2C6023E04C782F4D2C705F
:1027E0008C786C70264C246844F04004244D2C6096
:1027F00017E04C782A4D2C70214C246844F48064F6
:102800001F4D2C600DE01E4C246844F480741C4D58
:102810002C6006E01A4C246844F48054184D2C6057
:1028200000BF00BF30BD0278FF2A1CD142788378F8
:102830001A43C3781A4303791A4302F080026AB933
:102840000122184B1A71C278D10102790A441A8008
:102850004278D10182780A445A8008E00022114B64
:102860005A801A8003E000220E4B5A801A8070476B
:1028700005200D49087070476E0D0020660000208D
:10288000500000206C000020740000207A0D002011
:10289000540000207A0000205A000020620000202E
:1028A00079000020A60000207000002010B586B03E
:1028B0000446012144F2040001F038F8D14801F047
:1028C00007F94FF40070ADF8140003208DF81600DE
:1028D00018208DF8170005A9CB4800F06BFD4FF4C8
:1028E0008060ADF8140004208DF8170005A9C648D3
:1028F00000F060FD25208DF8000003208DF8010018
:102900008DF8020001208DF80300684601F077F889
:1029100001940020ADF80800ADF80A00ADF80C00F5
:10292000ADF810000C20ADF80E0001A9B54801F07B
:1029300012F9012240F22551B24801F0A4F9012117
:10294000B04801F094F906B010BD10B50446214618
:10295000AC4801F0F9F900BF4021AA4801F062FA41
:102960000128F9D1A948006808B9012000E0002039
:10297000A649086010BD10B5044603E014F8010B29
:10298000FFF7E3FF20780028F8D110BD0278A04BB4
:102990001A7042785A70C278837842EA03229C4BBC
:1029A0005A804279037942EA0322994B9A80C2798C
:1029B000837942EA0322964BDA80427A037A42EA2A
:1029C0000322934B1A81C27A837A42EA0322904B04
:1029D0005A81002107E000F10C02535C8C4A0C3252
:1029E00053544A1CD1B20629F5DB704770B5002557
:1029F0000026002440F22551824801F029FA0128DE
:102A00006FD140F225517F4801F019FA81480088C2
:102A100001280FD17B4801F09BF9C5B27E480078B0
:102A2000AA2804D1552D02D100207A4908807A487D
:102A30000570CAE0734801F08BF9C1B2774802789B
:102A40000078401C754B1870754881547548008893
:102A5000401C74490880184600781328E9DB0024DC
:102A600005E06F48005D3044C6B2601CC4B2122C51
:102A7000F7DD002E79D16A48FFF788FF6448408867
:102A8000694908826248808848826148C088888293
:102A90005F480089C8825E480078072864D2DFE872
:102AA00000F004126321303B55005948007B5E4919
:102AB00088705748407B08725548807B087154489D
:102AC000C07B887150E05248007B5749487050489D
:102AD000407BC8714E48807BC8704D48C07B4871B0
:102AE00042E04BE04A48807B4F4948724848C07BEF
:102AF00088724748417C007C01EB00204A490883EA
:102B000032E04348807B4849C8724148C07B087323
:102B10003F48007C487327E03D48007B00F00400FC
:102B200018B10220404908700BE03948007B00F0E2
:102B3000020018B101203C49087002E000203A4927
:102B400008703348007B3849C8730DE03048807BFB
:102B500000F0030020B901203349887303E004E04A
:102B600000203149887300BF00BF01202949088037
:102B700000202A4908702849087026E040F2277191
:102B8000204801F065F900B32848007805280CDAE0
:102B90002748264A1278815C1A4801F0D5F8234864
:102BA0000078401C214908700FE000201F49087080
:102BB000002240F22771134801F065F81148FEF732
:102BC000A1FD10B100201B49087070BD10B5AA20EE
:102BD00017490870552048701748007888701648C3
:102BE0004078C87014480078134949780844C043B5
:102BF000401C0F490871012240F22771014801F081
:102C000042F810BD0038014000080140BC8122425A
:102C1000860D0020920000209000002094000020EB
:102C2000B20D00208E000020980D0020950000209D
:102C3000860000208C0000206200002010B586B0C5
:102C400004460121082000F071FE0121880400F0F3
:102C50007AFE4FF48060ADF8140018208DF817004C
:102C600003208DF8160005A9744800F0A3FB4FF46B
:102C70000060ADF8140004208DF8170005A96F4816
:102C800000F098FB01940020ADF80800ADF80A00B0
:102C90004FF4C060ADF80C000020ADF810000C201F
:102CA000ADF80E0001A9664800F055FF27208DF809
:102CB000000003208DF801008DF8020001208DF83E
:102CC0000300684600F09BFE012240F225515C485B
:102CD00000F0D9FF01215A4800F0C9FF06B010BD2D
:102CE00010B504462146564801F02EF800BF402199
:102CF000534801F097F80028F9D010BD10B50446EC
:102D000003E014F8010BFFF7EBFF20780028F8D15F
:102D100010BD70B505460C46CB202070BC206070FD
:102D2000A570012240F22771454800F0ACFF70BD4C
:102D300008B5417801F08001B1BB817801F08001D4
:102D400091BBC17801F0800171BB017901F0800174
:102D500051BB417801F07F018DF80010817801F0BE
:102D600010018DF80110C17801F07F01827802F026
:102D7000400241EA42018DF80210017901F07F0121
:102D80008DF803109DF803102E4A11709DF8021063
:102D900051709DF80110D1709DF8011069B17F212B
:102DA0001170FF21517008E0FFE77F21254A117063
:102DB000FF21517010218DF801100121214A9170DD
:102DC00008BD10B5002440F225511D4801F040F81F
:102DD000012831D11C48008801280FD1184800F083
:102DE000B7FFC4B204F0800030B300201649088059
:102DF000164908701648097844541DE013480078B5
:102E0000401C1249087013480088401C1149088072
:102E10000B4800F09DFF0E490C4A127888540B486D
:102E20000078042808DB01200749088000200749B2
:102E300008700748FFF77CFF10BD0000000C014040
:102E40000048004098000020A2000020A4000020BC
:102E50009C0000209600002030B589B004460D4645
:102E60000121022000F06FFD0121092000F05EFD2C
:102E700001212D4800F06FFB2020ADF82000182024
:102E80008DF8230003208DF8220008A9274800F0C0
:102E900091FA2021254800F03AFB254801F080FCFA
:102EA000ADF81840ADF814500020ADF81A00ADF898
:102EB000160005A91E4801F0E3F86020ADF80400F3
:102EC0000120ADF80600601C00EBD071C1F34F018A
:102ED000ADF80A100020ADF80C0001A9144801F06B
:102EE0004EF90821124801F060FD0121104801F05F
:102EF00023FD01210E4801F01FFC09B030BD70B563
:102F00000446642C00DD6424142C00DA14244FF4ED
:102F100034706043642190FBF1F085B22946044887
:102F200001F0A4FE70BD000000081A00000C014072
:102F30000004004008B50121102000F0F7FC4FF418
:102F40006070ADF8000002208DF8020004208DF8BA
:102F500003006946664800F02DFA0121042000F0C4
:102F6000E5FC4FF48070ADF8000002208DF80200FF
:102F700004208DF8030069465E4800F01BFA012129
:102F8000402000F0D3FC4FF40050ADF800000220C8
:102F90008DF8020004208DF803006946564800F0C1
:102FA00009FA08BD10B555480068A8B15448007822
:102FB000A8B1022000F0F3F85048006878B1002072
:102FC0004F4908707A204F4908804F48006840F008
:102FD00004004D49086002E001204949087010BD15
:102FE00010B54A480068A8B949480078A8B102203D
:102FF00000F0D5F84548006878B9002044490870C9
:103000007D20404908804048006840F004003E4967
:10301000086002E001203E49087010BD10B53B4831
:1030200008380068B0B93B480078B0B1022000F021
:10303000B6F836480838006878B900203549087075
:103040007B20304908803048006840F004002E4959
:10305000086002E001202F49087010BD10B52B4810
:10306000001F0068B0B92C480078B0B1022000F011
:1030700096F82648001F006878B900202649087095
:103080007C20204908802048006840F004001E4948
:10309000086002E001202049087010BD10B51F48EB
:1030A0000068A8B91E480078A8B1022000F077F89F
:1030B0001A48006878B90020194908707E20114923
:1030C00008801148006840F004000F49086002E0E1
:1030D00001201349087010BD10B5FFF763FFFFF71B
:1030E0007FFFFFF79BFFFFF7B9FFFFF7D7FF10BD8B
:1030F0000010014000080140001801403401234243
:10310000AE00002076000020500000202401224262
:10311000AF000020B0000020B100002020012142BB
:10312000B200002010B56FF0040000F0B2FC2E4891
:1031300000682E49B0FBF1F02D4908700846007870
:1031400000EB4001C1EBC0104FF6FF7101EAC00077
:103150002849088010BD0146254A12784A434FF09D
:10316000E0235A6100229A611A46126942F0010274
:103170001A6100BF4FF0E022106900F001021AB19D
:1031800000F48032002AF5D04FF0E022126922F0DC
:1031900001024FF0E0231A6100229A617047014654
:1031A000144A12884A434FF0E0235A6100229A6180
:1031B0001A46126942F001021A6100BF4FF0E02284
:1031C000106900F001021AB100F48032002AF5D033
:1031D0004FF0E022126922F001024FF0E0231A6161
:1031E00000229A61704700000000002000127A005F
:1031F000B4000020B600002008B50121082000F02E
:1032000095FB4FF44050ADF8000004208DF803000A
:1032100003208DF8020069461F4800F0CBF808BD76
:1032200010B54FF4A06000F0E5FB10BD00201B4975
:10323000096801B10120704700201849091D09687B
:1032400001B100E00120704700B5FFF7F5FF28B994
:1032500013480068401C1249086004E011480068E7
:10326000401C1049086010480068401C0E49086066
:103270000846006864280ED3094800880B49088076
:10328000084800880A490880002005490860054967
:1032900008600549086000BD000C014030812142F2
:1032A000C0000020C4000020BC000020B8000020A6
:1032B000BA0000200948804709480047FEE7FEE7BA
:1032C000FEE7FEE7FEE7FEE7FEE7FEE7FEE7FEE7D6
:1032D00004480549054A064B704700005B03000897
:1032E00031010008300E0020301400203010002082
:1032F0003010002010B50446CC48844208D101218A
:10330000042000F02DFB0021042000F029FB46E002
:10331000C748844208D10121082000F021FB002188
:10332000082000F01DFB3AE0C248844208D1012188
:10333000102000F015FB0021102000F011FB2EE002
:10334000BD48844208D10121202000F009FB002162
:10335000202000F005FB22E0B848844208D101217A
:10336000402000F0FDFA0021402000F0F9FA16E0BC
:10337000B348844208D10121802000F0F1FA0021F5
:10338000802000F0EDFA0AE0AE48844207D1012126
:10339000801500F0E5FA0021A01500F0E1FA10BD5B
:1033A00010B50121084600F0DBFA0021012000F0F1
:1033B000D7FA10BD2DE9F041024600250026002075
:1033C00000230024002791F803C00CF00F0591F8AA
:1033D00003C00CF0100CBCF1000F03D091F802C038
:1033E0004CEA050591F800C0BCF1000F31D014681B
:1033F00000202BE04FF0010C0CFA00F3B1F800C0F4
:103400000CEA03069E4220D183004FF00F0C0CFA09
:1034100003F7BC4305FA03FC4CEA040491F803C02B
:10342000BCF1280F06D14FF0010C0CFA00FCC2F8D9
:1034300014C00AE091F803C0BCF1480F05D14FF069
:10344000010C0CFA00FCC2F810C0401C0828D1D3B3
:103450001460B1F800C0BCF1FF0F34DD54680020E7
:103460002EE000F1080C4FF0010808FA0CF3B1F857
:1034700000C00CEA03069E4221D183004FF00F0CDE
:103480000CFA03F7BC4305FA03FC4CEA040491F878
:1034900003C0BCF1280F05D100F1080C08FA0CF8A4
:1034A000C2F8148091F803C0BCF1480F07D100F1B5
:1034B000080C4FF0010808FA0CF8C2F81080401C04
:1034C0000828CED35460BDE8F0814FF6FF7101802B
:1034D000022181700421C170704702460020936868
:1034E0000B400BB1012000E00020704701468868C6
:1034F00080B2704702460020D3680B400BB1012018
:1035000000E0002070470146C86880B27047016142
:103510007047416170470AB1016100E04161704745
:10352000C16070474FF480320A43826181618261D9
:1035300082698269704702460020434B18684FF643
:103540008073184040EA021008433F4B18607047F0
:103550003E49C8617047F0B50A46002300240021A7
:10356000002500F00046B6F1004F02D1364EF16959
:1035700001E0354E7168C0F3034583B200F4401694
:10358000B6F5401F08D121F070612F4E766826F005
:1035900070662D4F7E6012E000F48016B6F5801F35
:1035A00006D1032606FA05F4A14341F0706106E056
:1035B000460D360103FA06F6B14341F0706122B1BF
:1035C000460D360103FA06F6314300F00046B6F127
:1035D000004F02D11C4EF16101E01B4E7160F0BD45
:1035E00030B500228B071C0F0F2303FA04F2164B91
:1035F00008338C1053F824309343134C08348D1047
:1036000044F8253023468C1053F824308C07240FBF
:1036100000FA04F423430C4C08348D1044F8253090
:1036200030BD0A49DC3108607047000000080140E5
:10363000000C01400010014000140140001801403E
:10364000001C014000200140000001400000204219
:10365000DF48006840F00100DD4908600846406826
:10366000DC490840DA49486008460068DA49084001
:10367000D74908600846006820F4802008600846A2
:10368000406820F4FE0048604FF41F0088607047D7
:10369000CF49096821F48031CD4A1160114609688B
:1036A00021F480211160B0F5803F03D0B0F5802F68
:1036B0000ED106E0C649096841F48031C44A116060
:1036C00007E0C349096841F4A021C14A116000E044
:1036D00000BF00BF704710B5014600220023002044
:1036E0004A11012A02D1BA4C236806E0022A02D10B
:1036F000B74C236A01E0B64C636A01F01F02012453
:1037000094401C400CB1012000E0002010BD38B5F1
:10371000002000900024002500BF3120FFF7DBFFD0
:1037200005460098401C00900098B0F5A06F01D0AD
:10373000002DF2D03120FFF7CEFF08B1012400E0C8
:103740000024204638BD01460020A14A106820F020
:10375000F80040EAC10010607047A0490860704757
:10376000024600209A4B586820F47C1042EA01037C
:103770001843974B58607047984908667047014650
:103780000020934A506820F00300084350607047BF
:103790008F48406800F00C007047014600208C4ABA
:1037A000506820F0F0000843506070470146002048
:1037B000874A506820F4E060084350607047014633
:1037C0000020834A506820F4605040EAC1005060F5
:1037D000704729B17E4A527A02437D4B5A7204E007
:1037E0007B4A527A82437A4B5A7270477B49D8316E
:1037F0000860704701460020754A506820F4404038
:103800000843506070470021714A20321170704A9D
:1038100082F82010012802D004280AD104E00121F6
:103820006B4A2032117005E00521694A203211707F
:1038300000E000BF00BF70476949086070476449F5
:10384000096A0143624A1162704765494439086058
:10385000704730B500210022002400235C4D6D68C4
:1038600005F00C0121B1042905D0082923D105E078
:103870005C4D056022E05B4D05601FE0544D6D68B6
:1038800005F47012524D6D6805F48034022505EB85
:1038900092421CB9544D554305600BE04C4D6D6888
:1038A00005F400351DB1504D5543056002E04D4D06
:1038B0005543056002E04B4D056000BF00BF444D1D
:1038C0006D6805F0F0010909484D6B5C0568DD4045
:1038D00045603F4D6D6805F4E061090A434D6B5C3E
:1038E0004568DD4085603A4D6D6805F46051C90A50
:1038F0003E4D6B5C4568DD40C560354D6D6805F437
:103900004041890B3A4D6B5CC568B5FBF3F5056129
:1039100030BD29B12E4A526902432D4B5A6104E051
:103920002B4A526982432A4B5A61704729B1284A6F
:1039300092690243264B9A6104E0254A92698243C8
:10394000234B9A61704729B1214AD2690243204B27
:10395000DA6104E01E4AD26982431D4BDA61704786
:1039600029B11B4AD2680243194BDA6004E0184AB5
:10397000D2688243164BDA60704729B1144A126943
:103980000243134B1A6104E0114A12698243104B3F
:103990001A61704712494039086070470F49C8647E
:1039A00070470B49C87170470948406A40F0807001
:1039B00007494862704701460020054A92680A405C
:1039C0000AB1012000E00020704701498872704769
:1039D000001002400000FFF8FFFFF6FE0000424228
:1039E0008004424200127A0000093D00C800002015
:1039F000D800002031490143314A1160704770B549
:103A0000002100230F22C47804B32D4C246804F451
:103A1000E064C4F5E064210AC1F10403CA404478BB
:103A200004FA03F18478144021430901254C0678F7
:103A3000A155047804F01F050124AC4005786D11F0
:103A4000AD0005F1E025C5F8004109E0047804F077
:103A50001F050124AC401C4D0678761145F8264020
:103A600070BD1A4A0A400243154B1B1F1A6070476B
:103A700039B1134A121D12680243114B1B1D1A6003
:103A800006E00F4A121D126882430D4B1B1D1A607F
:103A90007047042808D14FF0E021096941F0040182
:103AA0004FF0E022116107E04FF0E021096921F0B9
:103AB00004014FF0E0221161704700000000FA0598
:103AC0000CED00E000E400E080E100E080FFFF1F7B
:103AD00010B50446FB48844209D101218803FFF751
:103AE0003FFF00214FF48040FFF73AFF32E0F648F5
:103AF000844209D101214804FFF73FFF00214FF420
:103B00000030FFF73AFF25E0F048844209D1012157
:103B10008804FFF732FF00214FF48020FFF72DFFCC
:103B200018E0EB48844209D10121C804FFF725FFC2
:103B300000214FF40020FFF720FF0BE0E54884420E
:103B400008D101210805FFF718FF00214FF480106C
:103B5000FFF713FF10BD2DE9F04786B005460E466E
:103B60000024A24600BFA1460027B08900B100BFD3
:103B70002F462C8A4CF6FF700440F08804432C82B8
:103B8000AC894EF6F3100440B0883189084371893E
:103B900008430443AC81AC8A4FF6FF400440B0892F
:103BA0000443AC8201A8FFF754FEC648874202D105
:103BB000DDF810A001E0DDF80CA0A88900F40040B9
:103BC00040B10AEBCA0000EB0A1031684900B0FBB3
:103BD000F1F807E00AEBCA0000EB0A10316889002F
:103BE000B0FBF1F86420B8FBF0F004012009642177
:103BF00001FB1089A88900F4004040B1322000EB9D
:103C0000C900B0FBF1F000F00700044308E03220E7
:103C100000EB09106421B0FBF1F000F00F00044349
:103C20002C8106B0BDE8F0874FF4165101600021E9
:103C30008180C18001810C214181002181817047F7
:103C400010B502460020108A4FF2FF0318400B887F
:103C50004C8823438C882343CC8823431843108209
:103C600010BD0021018041808180C180704721B159
:103C7000828942F40052828104E082894DF6FF730A
:103C80001A4082817047F0B50346002400260025C3
:103C9000002040F66A17B94200D100BF1846C1F3B0
:103CA000421401F01F06012707FA06F5012C01D185
:103CB0000C3004E0022C01D1103000E014301AB1B5
:103CC00007682F43076002E00768AF430760F0BD55
:103CD0001AB1838A0B43838202E0838A8B438382F7
:103CE0007047028A4FF6F0731A400282028A0A4332
:103CF0000282704782894FF2FF731A408281828963
:103D00000A438281704721B1828942F00202828196
:103D100004E082894FF6FD731A4082817047028A5F
:103D20004FF6DF731A400282028A0A43028270470A
:103D300021B1028A42F48042028204E0028A4BF6F8
:103D4000FF731A4002827047C1F3080282807047F5
:103D500001468888C0F308007047818941F001015D
:103D600081817047028BD2B20283028B42EA012228
:103D700002837047028B02F47F420283028B0A4364
:103D80000283704721B1828A42F02002828204E0DD
:103D9000828A4FF6DF731A408282704721B1828A8D
:103DA00042F01002828204E0828A4FF6EF731A40DA
:103DB0008282704721B1828A42F00802828204E046
:103DC000828A4FF6F7731A408282704721B1828946
:103DD00042F40042828103E08289C2F30E028281B2
:103DE000704721B1828A42F40062828204E0828AB2
:103DF0004FF2FF731A4082827047828A4FF6FB733C
:103E00001A408282828A0A438282704721B1828A62
:103E100042F00202828204E0828A4FF6FD731A4069
:103E20008282704702460020B1F5007F00D100BFBA
:103E300013880B400BB1012000E00020704701F413
:103E40000072B2F5007F00D100BFCA430280704704
:103E500070B50246002400230025002040F66A16B3
:103E6000B14200D100BFC1F3421501F01F0301268A
:103E700006FA03F3012D02D19689334006E0022DA4
:103E800002D1168A334001E0968A33400C12012693
:103E900006FA04F41688344013B10CB1012000E096
:103EA000002070BD10B50022002340F66A14A14224
:103EB00000D100BF0A1201249440A3B2DC43048065
:103EC00010BD0000003801400044004000480040A0
:103ED000004C00400050004010B50446FE488442AB
:103EE00008D10121C014FFF73BFD0021E014FFF7CA
:103EF00037FDC4E0B4F1804F08D101210846FFF737
:103F00003CFD00210120FFF738FDB8E0F348844272
:103F100008D101210220FFF730FD00210220FFF728
:103F20002CFDACE0EE48844208D101210420FFF7CB
:103F300024FD00210420FFF720FDA0E0E948844291
:103F400008D101210820FFF718FD00210820FFF704
:103F500014FD94E0E448844208D101211020FFF7C9
:103F60000CFD00211020FFF708FD88E0DF488442A7
:103F700008D101212020FFF700FD00212020FFF7BC
:103F8000FCFC7CE0DA48844208D101214014FFF7B0
:103F9000E7FC00216014FFF7E3FC70E0D5488442A1
:103FA00009D10121C804FFF7DBFC00214FF40020F8
:103FB000FFF7D6FC63E0D048844209D1012108050F
:103FC000FFF7CEFC00214FF48010FFF7C9FC56E04C
:103FD000CA48844209D101214805FFF7C1FC0021EC
:103FE0004FF40010FFF7BCFC49E0C548844208D1FB
:103FF00001214020FFF7C1FC00214020FFF7BDFC5C
:104000003DE0C048844208D101218020FFF7B5FC83
:1040100000218020FFF7B1FC31E0BB48844208D189
:1040200001218015FFF7A9FC0021A015FFF7A5FCD1
:1040300025E0B648844209D101210804FFF790FC2D
:1040400000214FF48030FFF78BFC18E0B048844229
:1040500009D101214804FFF783FC00214FF400300F
:10406000FFF77EFC0BE0AB48844208D101218804B5
:10407000FFF776FC00214FF48020FFF771FC10BDA4
:1040800000220288944B98420ED0994B98420BD054
:10409000B0F1804F08D0914B984205D0904B984298
:1040A00002D0904B984204D14FF68F731A404B8840
:1040B0001A438D4B984207D08C4B984204D04FF650
:1040C000FF431A40CB881A4302808B8883850B8874
:1040D0000385814B98420BD0854B984208D08B4B7F
:1040E000984205D08A4B984202D08A4B984201D11F
:1040F0000B7A038601238382704770B50024002267
:104100000023058C4FF6FE7635400584028C8388AB
:10411000048B4FF68F752C40B51E2C400D882C4318
:10412000751E2A400D892A434D882A436A4DA842AC
:104130000BD06F4DA84208D0744DA84205D0744DE5
:10414000A84202D0734DA84213D14FF6F7752A400A
:104150004D892A434FF6FB752A408D882A434FF636
:10416000FF652B404FF6FF552B408D892B43CD89A2
:104170002B4383800483CD888586028470BD70B50F
:10418000002400220023058C4FF6EF76354005848D
:10419000028C8388048B48F6FF752C404FF6FF4550
:1041A0002C400D884FF6FF7606EA05252C434FF686
:1041B000DF752A400D8906EA05152A434D8806EA6F
:1041C00005152A43444DA84202D0494DA8421DD1AD
:1041D0004FF67F752A404D894FF6FF7606EA0515A2
:1041E0002A434FF6BF752A408D8806EA05152A43F3
:1041F0004FF6FF352B404FF2FF752B408D8906EAB5
:1042000085052B43CD8906EA85052B4383800483EE
:10421000CD880587028470BD70B50024002200237C
:10422000058C4FF6FF6635400584028C8388848BAD
:104230004FF68F752C404FF6FC752C400D882C43A3
:104240004FF6FF552A400D894FF6FF7606EA052501
:104250002A434D8806EA05252A431F4DA84202D06D
:10426000234DA8421DD14FF2FF752A404D894FF6CC
:10427000FF7606EA05252A434FF6FF352A408D884A
:1042800006EA05252A434EF6FF752B404DF6FF75CD
:104290002B408D8906EA05152B43CD8906EA0515C5
:1042A0002B4383808483CD888587028470BD70B55D
:1042B000002200230024058C4EF6FF76354005844D
:1042C000038C8488828B48F6FF752A404FF6FF45A1
:1042D0002A400D8820E00000002C0140000400402E
:1042E00000080040000C0040001000400014004096
:1042F00000340140004C0140005001400054014096
:1043000000180040001C0040002000400040014018
:1043100000440140004801404FF6FF7606EA0525BB
:104320002A434DF6FF752B400D8906EA05352B43D0
:104330004D8806EA05352B43FA4DA84202D0FA4DC6
:10434000A84208D14BF6FF752C408D894FF6FF76B9
:1043500006EA85152C4384808283CD88A0F84050DE
:10436000038470BD828B4FF2FF331A408283828BAD
:104370004FF6FF7303EA01231A4382837047F0B5B7
:104380000C461546002200210026078C4EF6FF7CC5
:1043900007EA0C070784828B018C4FF6FF7707EA48
:1043A000043640F6FF473A404FF6FF7707EA052705
:1043B0003A434FF6FF7707EA03373A43D94FB842FB
:1043C0000ED0D94FB8420BD0B0F1804F08D0D74FA4
:1043D000B84205D0D64FB84202D0D64FB84206D127
:1043E0004DF6FF77394046F48057394305E047F6EC
:1043F000FF57394044F48057394382830184F0BD2C
:10440000828B4FF6F3731A408283828B0A43828336
:104410007047F0B50C461546002200210026078C97
:104420004FF6FF6C07EA0C070784828B018C4FF66E
:10443000FF7707EA04264FF60C773A404FF6FF77EE
:1044400007EA03172F433A43B64FB8420ED0B64F90
:10445000B8420BD0B0F1804F08D0B44FB84205D06D
:10446000B34FB84202D0B34FB84206D14FF6FF5710
:10447000394046F48077394305E04FF2FF57394021
:1044800044F48077394382830184F0BD028B4FF27C
:10449000FF331A400283028B4FF6FF7303EA0123B6
:1044A0001A4302837047F0B50C46154600220021DE
:1044B0000026078C4FF6EF7C07EA0C070784028B77
:1044C000018C4FF6FF7707EA041640F6FF473A40A3
:1044D0004FF6FF7707EA03373A434FF6FF7707EACD
:1044E00005273A438F4FB8420ED08F4FB8420BD0BA
:1044F000B0F1804F08D08D4FB84205D08C4FB842F4
:1045000002D08C4FB84206D14FF6DF77394046F0E3
:104510001007394305E04FF65F77394044F0100744
:10452000394302830184F0BD028B4FF6F3731A40C6
:104530000283028B0A4302837047F0B50C4615468E
:1045400000220021068C4FF6FE773E400684028B47
:10455000018C4FF60C7632407E1C06EA03162E4381
:104560003243704EB0420ED06F4EB0420BD0B0F11D
:10457000804F08D06D4EB04205D06D4EB04202D093
:104580006C4EB04206D14FF6FD76314044F0010644
:10459000314305E04FF6F576314044F001063143F2
:1045A00002830184F0BD70B505460C465D48854226
:1045B0000ED05D4885420BD0B5F1804F08D05B48E6
:1045C000854205D05A48854202D05A48854200D1DA
:1045D00000E000BF208850B92389A288618828465E
:1045E000FFF7ABFFE1882846FFF79EFF25E0208814
:1045F00004280AD12389A28861882846FFF753FF3F
:10460000E1882846FFF742FF17E0208808280AD1F2
:104610002389A28861882846FFF7FBFEE1882846A7
:10462000FFF7EEFE09E02389A28861882846FFF79C
:10463000A6FEE1882846FFF795FE70BD2DE9F04102
:1046400005460C4600260127608808B9022600E0CE
:104650000026A088012801D1022700E00127208838
:10466000A0B92389A28861882846FFF766FFE18800
:104670002846FFF759FF23893A4631462846FFF777
:1046800012FFE1882846FFF701FF13E02389A28883
:1046900061882846FFF707FFE1882846FFF7F6FE06
:1046A00023893A4631462846FFF747FFE1882846E6
:1046B000FFF73AFFBDE8F0810A884B881A438B88E0
:1046C0001A43CB881A430B891A434B891A438B89A7
:1046D0001A43A0F8442070474FF6FF7181800021F3
:1046E0000180C180418001727047002101804180BA
:1046F0008180C180018141818181C1817047002118
:1047000001804180012181800021C18001817047A9
:104710000021018041808180C180018141818181AE
:1047200070470000002C01400034014000040040AC
:1047300000080040000C004021B1028842F0010254
:10474000028004E002884FF6FE731A400280704730
:1047500031B1B0F8442042F40042A0F8442005E012
:10476000B0F84420C2F30E02A0F8442070471AB1FA
:1047700083890B43838102E083898B438381704764
:104780008182704741EA0203A0F8483070471AB1AD
:1047900083890B43838102E083898B438381704744
:1047A00001894FF6F8721140018170470A460021D5
:1047B00001894FF68F73194011430181704730B55D
:1047C00004460D4629462046FFF7F0FF208940F0B9
:1047D0000700208130BD2DE9F04104460D46164604
:1047E0001F46602D06D13B46012231462046FFF789
:1047F0005AFE05E03B46012231462046FFF79DFE6A
:1048000029462046FFF7D2FF208940F0070020818B
:10481000BDE8F08130B50C4600210189C9B24FF6E0
:10482000FF7505EA0325154325432943018130BD62
:104830002DE9F04105460E461746984600244346AA
:104840003A4631462846FFF7E5FF2C894FF6F870C7
:10485000044044F007044FF68F70044044F07004A5
:104860002C81BDE8F081F0B504460D4616461F4682
:104870003B46324629462046FFF7CCFF208940F4CC
:1048800080402081F0BD0185828270470A46002168
:1048900001884FF68F731940114301807047F0B5BE
:1048A0000C4615461E460021002200230189028B7A
:1048B000038C4FF6F877394021434FF6FC473A40D6
:1048C00040F201173A434FF6DD773B404FF6FF7752
:1048D00007EA06172F433B43018102830384F0BD9F
:1048E0000A460021018B4FF68F7319401143018353
:1048F00070470A460021018B48F6FF7319404FF6B6
:10490000FF7303EA02231943018370470A4600211B
:10491000818B4FF68F7319401143818370470A468C
:104920000021818B48F6FF7319404FF6FF7303EAAD
:10493000022319438183704721B1028842F080022B
:10494000028004E002884FF67F731A4002807047AD
:1049500021B1828842F00402828004E082884FF60E
:10496000FB731A408280704721B1828842F00802AE
:10497000828004E082884FF6F7731A408280704785
:1049800021B1828842F00102828004E082884FF6E1
:10499000FE731A40828070470A460021018B4FF651
:1049A000F77319401143018370470A460021018BB8
:1049B0004FF2FF7319404FF6FF7303EA02231943C6
:1049C000018370470A460021818B4FF6F773194027
:1049D0001143818370470A460021818B4FF2FF7398
:1049E00019404FF6FF7303EA02231943818370478E
:1049F0000A460021018B4FF6FB73194011430183D6
:104A000070470A460021018B4FF6FF3319404FF6DD
:104A1000FF7303EA02231943018370470A4600210A
:104A2000818B4FF6FB7319401143818370470A460F
:104A30000021818B4FF6FF3319404FF6FF7303EAD5
:104A400002231943818370470A460021018B4FF6E8
:104A50007F7319401143018370470A460021018B7F
:104A6000C1F30E014FF6FF7303EA022319430183DA
:104A700070470A460021818B4FF67F73194011431E
:104A8000818370470A460021818BC1F30E014FF6E6
:104A9000FF7303EA02231943818370470A4600210A
:104AA000018C4FF6FD7319401143018470470A468B
:104AB0000021018C4FF6F7731940114301847047B0
:104AC0000A460021018C4FF6DF7319404FF6FF7341
:104AD00003EA02131943018470470A460021018C3E
:104AE0004FF67F7319404FF6FF7303EA0213194321
:104AF000018470470A460021018C4FF6FF5319408C
:104B00004FF6FF7303EA02231943018470470A46F4
:104B10000021018C4FF2FF7319404FF6FF7303EA37
:104B200002231943018470470A460021018C4DF687
:104B3000FF7319404FF6FF7303EA023319430184F0
:104B4000704730B5002301248C40A3B2048C9C43F1
:104B50000484048C02FA01F5ADB22C43048430BD08
:104B600030B5002304248C40A3B2048C9C430484FD
:104B7000048C02FA01F5ADB22C43048430BD70B54B
:104B80000346002000241846183001258D40ACB2A1
:104B90001D8CA5431D8409B1082909D100EB6100D2
:104BA000056825F0700505600568154305600EE091
:104BB0000D1FC5F34E052844056825F4E045056042
:104BC00005684FF6FF7606EA02263543056070BD9C
:104BD00021B1028842F00202028004E002884FF60E
:104BE000FD731A400280704721B1028842F004022E
:104BF000028004E002884FF6FB731A40028070477F
:104C000021B1828842F08002828004E082884FF6DF
:104C10007F731A408280704702884FF6F7731A40FC
:104C2000028002880A430280704782884FF68F73A1
:104C30001A40828082880A438280704702894FF638
:104C4000F8731A40028102890A430281704702897F
:104C50004FF67F731A40028102890A43028170472E
:104C600081847047818570478186704701877047CE
:104C700081877047A0F84010704702884FF6FF43C5
:104C80001A40028002880A43028070470146888EDB
:104C900070470146088F70470146888F704701466C
:104CA000B1F8400070470146888C70470146088D76
:104CB000704702460020138A0B400BB1012000E030
:104CC00000207047CA430282704730B50246002078
:104CD00000230024158A05EA0103958905EA0104E9
:104CE00013B10CB1012000E0002030BDCA430282A4
:104CF0007047000010B50446FA48844208D10121EB
:104D00004015FEF72DFE00216015FEF729FE17E085
:104D1000F548844208D101210015FEF721FE00214B
:104D20002015FEF71DFE0BE0F048844208D101215A
:104D3000C803FEF715FE00214FF40040FEF710FEF9
:104D400010BD30B50246002000235068E84C2040DA
:104D50000D790C6844EA0524204350609068E54CC6
:104D60002040D1E902542C434D7944EA45042043C4
:104D70009060D06A20F470000C7C641EE4B223437F
:104D800040EA0350D06230BD0021016001714171E1
:104D90008160C16001210174704721B1826842F0D5
:104DA0000102826003E0826822F0010282607047A3
:104DB00021B1826842F48072826003E0826822F44A
:104DC00080728260704710B50023CBB21AB144687C
:104DD0001C43446002E044689C43446010BD816809
:104DE00041F0080181607047014600208A6802F0A6
:104DF00008020AB1012000E000207047816841F0FC
:104E0000040181607047014600208A6802F00402B4
:104E10000AB1012000E00020704721B1826842F40D
:104E2000A002826003E0826822F4A00282607047E0
:104E3000014600208A6802F480020AB1012000E0E5
:104E40000020704710B50A4600210023416821F474
:104E50006041531E41EA4331416010BD21B14268B7
:104E600042F40062426003E0426822F40062426061
:104E70007047F0B504460D4600200021092D11DDD4
:104E8000E068A5F10A0606EB4607072606FA07F1D1
:104E90008843A5F10A0606EB460603FA06F1084325
:104EA000E0600CE0206905EB4507072606FA07F1EC
:104EB000884305EB450603FA06F108432061072AFB
:104EC0000FDA606B561E06EB86071F2606FA07F1FF
:104ED0008843561E06EB860605FA06F10843606312
:104EE00022E00D2A0FDA206BD61F06EB86071F265D
:104EF00006FA07F18843D61F06EB860605FA06F187
:104F00000843206310E0E06AA2F10D0606EB860775
:104F10001F2606FA07F18843A2F10D0606EB860666
:104F200005FA06F10843E062F0BD21B1826842F45F
:104F30008012826003E0826822F4801282607047EF
:104F40000146C86C80B2704766484C3000687047B4
:104F500021B1426842F48062426003E0426822F478
:104F600080624260704721B1426842F480524260E0
:104F700003E0426822F48052426070470A460021F2
:104F8000816821F4E04111438160704721B182685A
:104F900042F40042826003E0826822F400428260B0
:104FA000704721B1826842F40212826003E0826895
:104FB00022F4021282607047014600208A6802F4DF
:104FC00000120AB1012000E000207047F0B504464D
:104FD0001546002000220026092911DDE068A1F114
:104FE0000A0707EB470C072707FA0CF29043A1F1D9
:104FF0000A0707EB470703FA07F21043E0600CE0EB
:10500000206901EB410C072707FA0CF2904301EBF2
:10501000410703FA07F210432061A06BC0F3015669
:10502000EF1C06F1010CA7EB0C0707EB870C1F2701
:1050300007FA0CF29043EF1C06F1010CA7EB0C07EA
:1050400007EB870701FA07F21043A063F0BD10B524
:105050000A4600210023816B21F44011531E41EACE
:105060000351816310BD08B5002300930090009B9D
:105070000B440093009B1A6008BD08B5024600204F
:105080000090009201F12800009B184400900098C5
:10509000006880B208BD0A4600214168164B1940DD
:1050A0001143416070474162826270470A460021A5
:1050B000416821F01F0111434160704740B1094927
:1050C0000831096841F40001064A0832116007E01E
:1050D00004490831096821F40001024A08321160CC
:1050E000704700000024014000280140003C0140BE
:1050F000FFFEF0FFFDF7F1FFFFFD3FFF024600203E
:1051000013680B400BB1012000E000207047CA4338
:105110000260704770B502460020002300240B1285
:105120005568CEB205EA060415681D4015B10CB1EC
:10513000012000E0002070BD00220A12D34303606A
:105140007047000001684FF6FE72114001600021B7
:10515000016041608160C1608D49884208D18C49FD
:105160000839496841F00F01894A083A51608AE0DC
:1051700087491431884208D185490839496841F086
:10518000F001834A083A51607DE081492831884224
:1051900008D17F490839496841F470617C4A083A6E
:1051A000516070E07A493C31884208D17849083929
:1051B000496841F47041764A083A516063E07449A5
:1051C0005031884208D172490839496841F4702148
:1051D0006F4A083A516056E06D496431884208D1FF
:1051E0006B490839496841F47001694A083A5160CD
:1051F00049E067497831884208D1654908394968EA
:1052000041F07061624A083A51603CE0614988426D
:1052100006D1011F096841F00F01021F116032E041
:105220005C491431884208D15A49091F096841F084
:10523000F001584A121F116025E056492831884272
:1052400008D15449091F096841F47061514A121F7D
:10525000116018E04F493C31884208D14D49091F7F
:10526000096841F470414B4A121F11600BE0494933
:105270005031884207D14749091F096841F470211C
:10528000444A121F1160704710B50022026847F6A9
:10529000F0739A430C6A8B6823430C6923434C696F
:1052A00023438C692343CC6923434C6A23438C6A90
:1052B00023431A430260CB6843600B6883604B68EA
:1052C000C36010BD0021016041608160C160016167
:1052D00041618161C161016241628162704721B1B6
:1052E000026842F00102026004E002684FF6FE73B9
:1052F0001A40026070471AB103680B43036002E072
:1053000003688B43036070474160704701464868FB
:1053100080B2704701460020002201F080531BB18B
:105320001C4B083B1A6802E0194B083B1A6802EA5A
:1053300001030BB1012000E00020704700F0805114
:1053400019B11449091F086002E011490839486081
:10535000704701460020002201F080531BB10D4B25
:10536000083B1A6802E00A4B083B1A6802EA01038C
:105370000BB1012000E00020704700F0805119B10E
:105380000449091F086002E0014908394860704774
:105390000800024008040240704770477047754695
:1053A00000F028F8AE4605006946534620F0070095
:1053B000854618B020B5FDF78BFFBDE820404FF0C3
:1053C00000064FF000074FF000084FF0000B21F0EF
:1053D0000701AC46ACE8C009ACE8C009ACE8C009BC
:1053E000ACE8C0098D4670470446AFF30080204604
:1053F000FAF7E5FE00487047D00D0020014918205B
:10540000ABBEFEE726000200704700002C540008E7
:1054100000000020DC0000006C01000808550008B6
:10542000DC000020541300008801000800A24A0498
:105430000000000000000000010203040607080944
:105440000000000000000100000001000000010059
:105450000000FFE00000000000000000000000006D
:105460000001030200000000000000000000000036
:10547000000000000000000000000000000000002C
:10548000000000000000000000000000000000001C
:10549000000000000000802000000000000000006C
:1054A00000000000000000000000000000000000FC
:1054B00000000000000000000000000000000100EB
:1054C00000000000000000000000000000000100DB
:1054D00000000000000000000000010101010100C7
:1054E000000000000000E8030000000000000000D1
:1054F0000000000000000000010203040102030498
:08550000060708090204060871
:0400000508000131BD
:00000001FF
